:100000000C94CF050C94F7050C94F7050C94F705A8
:100010000C94F7050C94F7050C94F7050C94F70570
:100020000C94F7050C94F7050C94F7050C94F70560
:100030000C94F7050C94F7050C94F7050C94F70550
:100040000C946C130C94F7050C94F7050C94F705BD
:100050000C94F7050C94F7050C94F7050C94F70530
:100060000C94B6130C94F70508000000BE922449C6
:10007000123EABAAAA2ABECDCCCC4C3E00000080DA
:10008000BEABAAAAAA3E00000000BF000000803F4D
:100090000000000000084178D3BB4387D1133D190D
:1000A0000E3CC3BD4282AD2B3E68EC8276BED98F3A
:1000B000E1A93E4C80EFFFBE01C4FF7F3F0000007E
:1000C000000000000000003E5B4F5B3E3E6B4F6B4C
:1000D0003E1C3E7C3E1C183C7E3C181C577D571C29
:1000E0001C5E7F5E1C00183C1800FFE7C3E7FF00A2
:1000F00018241800FFE7DBE7FF30483A060E2629F0
:10010000792926407F050507407F05253F5A3CE7B2
:100110003C5A7F3E1C1C08081C1C3E7F14227F2278
:10012000145F5F005F5F06097F017F006689956A43
:10013000606060606094A2FFA29408047E040810CE
:10014000207E201008082A1C08081C2A08081E10F7
:100150001010100C1E0C1E0C30383E3830060E3EAF
:100160000E06000000000000005F0000000700070E
:1001700000147F147F14242A7F2A12231308646238
:1001800036495620500008070300001C2241000099
:1001900041221C002A1C7F1C2A08083E08080080F7
:1001A000703000080808080800006060002010088F
:1001B00004023E5149453E00427F40007249494990
:1001C000462141494D331814127F102745454539C2
:1001D0003C4A4949314121110907364949493646C6
:1001E0004949291E000014000000403400000008A6
:1001F0001422411414141414004122140802015949
:1002000009063E415D594E7C1211127C7F494949D5
:10021000363E414141227F4141413E7F494949416A
:100220007F090909013E414151737F0808087F0099
:10023000417F41002040413F017F081422417F401F
:100240004040407F021C027F7F0408107F3E4141F6
:10025000413E7F090909063E4151215E7F09192966
:1002600046264949493203017F01033F4040403F50
:100270001F2040201F3F4038403F63140814630391
:10028000047804036159494D43007F414141020410
:10029000081020004141417F040201020440404017
:1002A0004040000307080020545478407F2844440D
:1002B000383844444428384444287F385454541827
:1002C00000087E090218A4A49C787F080404780022
:1002D000447D40002040403D007F10284400004104
:1002E0007F40007C047804787C0804047838444417
:1002F0004438FC1824241818242418FC7C0804040E
:1003000008485454542404043F44243C4040207C76
:100310001C2040201C3C4030403C44281028444CC9
:100320009090907C4464544C440008364100000096
:10033000770000004136080002010204023C262337
:10034000263C1EA1A161123A4040207A38545455EF
:1003500059215555794122545478422155547840B9
:1003600020545579400C1E52721239555555593941
:100370005454545939555454580000457C41000296
:10038000457D420001457C407D1211127DF02825FB
:1003900028F07C545545002054547C547C0A097F35
:1003A0004932494949323A4444443A324A48483049
:1003B0003A4141217A3A42402078009DA0A07D3DFB
:1003C0004242423D3D4040403D3C24FF2424487E83
:1003D0004943662B2FFC2F2BFF0929F620C0887E6E
:1003E000090320545479410000447D413048484A73
:1003F00032384040227A007A0A0A727D0D19317D26
:100400002629292F28262929292630484D402038F9
:100410000808080808080808382F10C8ACBA2F10B8
:100420002834FA00007B000008142A142222142A1F
:1004300014085500550055AA55AA55AAFF55FF5551
:10044000FF000000FF00101010FF00141414FF0044
:100450001010FF00FF1010F010F0141414FC001422
:1004600014F700FF0000FF00FF1414F404FC141440
:1004700017101F10101F101F1414141F001010103D
:10048000F0000000001F101010101F10101010F0CE
:1004900010000000FF101010101010101010FF10AE
:1004A000000000FF140000FF00FF00001F101700F5
:1004B00000FC04F414141710171414F404F40000CE
:1004C000FF00F714141414141414F700F714141480
:1004D000171410101F101F141414F4141010F0101F
:1004E000F000001F101F0000001F14000000FC148B
:1004F0000000F010F01010FF10FF141414FF14107F
:1005000010101F00000000F010FFFFFFFFFFF0F0D1
:10051000F0F0F0FFFFFF0000000000FFFF0F0F0FE3
:100520000F0F3844443844FC4A4A4A347E020206DB
:1005300006027E027E0263554941633844443C040E
:10054000407E201E2006027E020299A5E7A5991C86
:100550002A492A1C4C7201724C304A4D4D303048A9
:10056000784830BC625A463D3E494949007E010107
:10057000017E2A2A2A2A2A44445F444440514A449C
:100580004040444A51400000FF0103E080FF00006A
:1005900008086B6B083612362436060F090F060062
:1005A0000018180000001010003040FF0101001F6B
:1005B00001011E00191D1712003C3C3C3C000000CC
:1005C0000000000103070F1F3F7F0080C0E0F0F82C
:1005D000FCFE000000080002010000030407000008
:1005E000000000000000DB40A4A62EAF2000A1C840
:1005F000D300408DAED580A8000060000000000050
:10060000000000000000000000E00000000000000A
:100610000000000000000001E000000000000000F9
:1006200000000000000001F00000000000000000D9
:10063000000000000003F0000000000000000000C7
:100640000000000007F000000000000000000000B3
:1006500000000007F800000000000000000000009B
:1006600000000FF800000003C0007E000001E00061
:100670007F0FF800000003C000FE000001E000FF53
:10068000EFF800000003C000FE000001E000FFFFE3
:10069000F800000003C000F00000000F007FFE7FA4
:1006A000C0000003C000F00000000F003FFE7FF814
:1006B0003FF1FBCFFCFEF3BC3DEFE01FFE7FFF7F71
:1006C000FBFFDFFEFEFFBC3DEFE01FC6FFFF7FFB31
:1006D000FFDFFEFEFFBC3DEFE00FE3C7FE787BC30C
:1006E000DE1EF0FFBC3DEF0007FF87FC787BC3DE1A
:1006F0001EF0F83C3DEF0001FFFFF0007BC3C01E81
:10070000F0F03C3DEF0001F37FE03FFBC3CFFEF094
:10071000F03C3DEF0003E33F807FFBC3DFFEF0F0E2
:100720003C3DEF0007E73C00787BC3DE1EF0F03C69
:100730003DEF0007FFBE00787BC3DE1EF0F03C3DBE
:10074000EF0007FFFE00787BC3DE1EF0F03C3DEFBC
:10075000000FFFFE007FFBFFDFFEF0F03FFDEFE04C
:100760000FFFFF007FFBFFDFFEF0F03FFDEFE00F2C
:10077000F9FF003E79F9CF9EF0F01F3DE7E01FF151
:10078000FF0000000000000000000000001F80FFCC
:10079000007FFFFFFFFFFFFFFFFFFFE01C007F0068
:1007A0007FFFFFFFFEB46D888D18E000001F007F03
:1007B000FFFFFFFE95AD7DB577E000000F007FFFE6
:1007C000FFFFFEA5AD9D8D19E0000006007FFFFF35
:1007D000FFFEB5ADEDB57EE0000000000001800039
:1007E0000000000000000000038000000000000086
:1007F00000000007C000000000000000000007C06B
:100800000000000000000000000FC0000000000019
:10081000000000001FE00000000000000000001FBA
:10082000E00000000000000000003FE000000000C9
:1008300000000000003FF000000000000000000089
:100840007FF0000000000000001FF87FF0000000B3
:10085000000000003FFE7FF0000000000000003FAD
:10086000FF7FF0000000000000001FFFFBE0000021
:1008700000000000000FFFF9FFC0000000000000B2
:100880000FFFF9FFF800000000000007FFF1FFFF75
:1008900000000000000003FC73FFFF800000000068
:1008A0000001FE3FFFFF80000000000000FF1E0F60
:1008B000FF000000000000007FFE1FFC00000000A1
:1008C0000000003FFFFFF8000000000000000FDF05
:1008D000FFE0000000000000001F19FFC000000042
:1008E000000000003F3CFF00000000000000007E10
:1008F0007CF800000000000000007FFE7C0000008B
:100900000000000000FFFFFC0000000000000000ED
:10091000FFFFFE0000000000000000FFFFFE0000DF
:10092000000000000001FFEFFE00000000000000DA
:1009300001FFCFFE0000000000000003FF07FE00E3
:1009400000000000000003FC07FE000000000000A3
:100950000003F003FE00000000000000018000FE24
:10096000000000000000000000007E000000000009
:1009700000000000003E0000000000000000000039
:100980000C000000000000078000FC000003C00015
:100990000000078001FC000003C000000007800188
:1009A000FC000003C0000000078001E00000001E02
:1009B000000000078001E00000001E007FE3F79FB9
:1009C000F9FDE7787BDFC0FFF7FFBFFDFDFF787B18
:1009D000DFC0FFF7FFBFFDFDFF787BDFC0F0F787CB
:1009E000BC3DE1FF787BDE00F0F787BC3DE1F078AD
:1009F0007BDE0000F787803DE1E0787BDE007FF75B
:100A0000879FFDE1E0787BDE00FFF787BFFDE1E037
:100A1000787BDE00F0F787BC3DE1E0787BDE00F01C
:100A2000F787BC3DE1E0787BDE00F0F787BC3DE175
:100A3000E0787BDE00FFF7FFBFFDE1E07FFBDFC07A
:100A4000FFF7FFBFFDE1E07FFBDFC07CF3F39F3DDD
:100A5000E1E03E7BCFC0000000000000000000008D
:100A600000FFFFFFFFFFFFFFFFFFFFC0FFFFFFFFD4
:100A7000FD68DB111A31C0FFFFFFFFFD2B5AFB6A37
:100A8000EFC0FFFFFFFFFD4B5B3B1A33C0FFFFFFD3
:100A9000FFFD6B5BDB6AFDC0000306090C0F12153E
:100AA000181C1F2225282B2E303336393C3F414459
:100AB00047494C4E515355585A5C5E6062646668B3
:100AC0006A6C6D6F70727375767778797A7B7C7CDF
:100AD0007D7E7E7F7F7F7F7F7F7F7F7F7F7F7E7E2C
:100AE0007D7C7C7B7A79787776757372706F6D6CAC
:100AF0006A68666462605E5C5A585553514E4C4950
:100B00004744413F3C393633302E2B2825221F1CC9
:100B10001815120F0C09060300FDFAF7F4F1EEEBBD
:100B2000E8E4E1DEDBD8D5D2D0CDCAC7C4C1BFBCB2
:100B3000B9B7B4B2AFADABA8A6A4A2A09E9C9A9838
:100B400096949391908E8D8B8A89888786858484EC
:100B5000838282818181818100000000250028003C
:100B60002B0000000000240027002A0004040404D5
:100B70000404040402020202020203030303030347
:100B80000102040810204080010204081020010224
:100B9000040810202200FF210000D5148A1A112415
:100BA0001FBECFEFD8E0DEBFCDBF11E0A0E0B1E0C7
:100BB000EEEEFCE302C005900D92A236B107D9F724
:100BC00023E0A2E6B1E001C01D92A637B207E1F72B
:100BD00015E0CEECD5E004C02197FE010E94331D44
:100BE000CD3CD107C9F70E9431150C946A1E0C94B4
:100BF000000090E0FC01E058F44F24918459944F98
:100C0000FC018491882399F090E0880F991FFC01E2
:100C1000EE59F44FA591B491FC01E85AF44F859137
:100C200094918FB7F894EC91E22BEC938FBF0895D9
:100C3000089508950895AF92BF92CF92DF92EF92F8
:100C4000FF920F931F93CF93DF936C017B018B0176
:100C5000040F151FEB015E01AE18BF08C017D107C6
:100C600059F06991D601ED91FC910190F081E02D50
:100C7000C6010995892B79F7C501DF91CF911F91A5
:100C80000F91FF90EF90DF90CF90BF90AF900895BD
:100C900090E0FC01EE52FA4F2491FC01E058F44F31
:100CA0003491FC01E459F44FE491EE23C9F022237E
:100CB00039F0233001F1A8F4213019F1223029F163
:100CC000F0E0EE0FFF1FE85AF44FA591B4918FB7F3
:100CD000F894EC91611126C030953E233C938FBF70
:100CE00008952730A9F02830C9F0243049F78091C1
:100CF00080008F7D03C0809180008F77809380007B
:100D0000DFCF84B58F7784BDDBCF84B58F7DFBCFFC
:100D10008091B0008F778093B000D2CF8091B000E7
:100D20008F7DF9CF3E2BDACF3FB7F89480910E023A
:100D300090910F02A0911002B091110226B5A89BCC
:100D400005C02F3F19F00196A11DB11D3FBFBA2F5D
:100D5000A92F982F8827BC01CD01620F711D811D1D
:100D6000911D42E0660F771F881F991F4A95D1F7A2
:100D700008958F929F92AF92BF92CF92DF92EF929F
:100D8000FF924B015C010E9494066B017C010E9462
:100D900094066C197D098E099F09683E7340810590
:100DA0009105A8F321E0821A9108A108B10888EE04
:100DB000C80E83E0D81EE11CF11C81149104A1042B
:100DC000B10429F7FF90EF90DF90CF90BF90AF90E4
:100DD0009F908F900895EF92FF920F931F93CF9360
:100DE000DF93EC01EC80FD806E157F050CF070C088
:100DF00057FF04C0240F351F50E040E08E819F81D3
:100E0000FA01E20FF31F8E179F071CF49C01241BAD
:100E1000350B121613060CF05BC0922F842F8695AB
:100E2000869586958E9DD0018F9DB00D11246A0FF9
:100E30007B1FAF8DB8A1A60FB71F477049F188E09F
:100E4000841B482F682F70E0FB01E653FA4FE491B2
:100E5000281708F063C0621B71092FEF30E002C051
:100E6000359527956A95E2F7E2230130110539F0AF
:100E7000B0F10230110561F58C91E82702C08C9128
:100E8000E82BEC93941720F12C813D81A20FB31F26
:100E9000E92FE41BE83078F00230110521F58E2FA0
:100EA0009C9190959C932C813D81A20FB31F8850FB
:100EB0008830B0F7E770EE2359F0F0E0EE53FA4FC8
:100EC000E49101301105F9F010F10230110519F12A
:100ED000DF91CF911F910F91FF90EF900895E095D2
:100EE0008C91E823CECF81E00115110509F480E053
:100EF00081959E2F8C932C813D81A20FB31F98501A
:100F00009830C0F7D7CF8C91E82BEC93E1CFE095E8
:100F10008C91E823FACF8C91E827F7CF01301105A7
:100F200009F4ADCFE0F20230110509F4A5CFAE0D02
:100F3000BF1DAECF0F931F93CF93DF9377FF04C0F6
:100F4000260F371F70E060E0DC011496CD91DC9134
:100F5000FB01E20FF31FCE17DF071CF49E01261BD7
:100F6000370B121613064CF5FA0157FD3796A3E01E
:100F7000F595E795AA95E1F7EC9FD001ED9FB00DAF
:100F8000FC9FB00D11246A0F7B1FDC015F96ED9171
:100F9000FC91E60FF71F4770552781E090E001C0F4
:100FA000880F4A95EAF7482F0130110559F0A8F04B
:100FB0002E0F3F1F02301105E1F0DF91CF911F91FD
:100FC0000F9108952E0F3F1FE217F307B1F38191A0
:100FD000DF011197842B8C93F7CF80952E0F3F1F45
:100FE000E217F30751F39191DF01119798239C9336
:100FF000F7CFE217F30709F38191DF0111978427F7
:101000008C93F7CF0F931F93FA01DC0156964C9106
:1010100056974230E9F04330A1F1413061F5149622
:101020004D915C91DA01AE1BBF0BFD01E21BF30B8E
:1010300077FD0BC0DC0116964D915C916417750726
:1010400024F4AB01BF010E949A071F910F910895EC
:1010500014964D915C91DA01A61BB70BBD0161504E
:101060007109DC0116964D915C91DA01AE1BBF0B44
:10107000FD01E21BF30B77FDE8CFAF010E94EB0609
:10108000E4CF16964D915C91DA01A61BB70BBD011A
:1010900061507109CDCF0F931F93FA01DC01569671
:1010A0004C9156974230A9F0433091F1413019F5F7
:1010B00014964D915C91DA01AE1BBF0BFD01319787
:1010C000F7FD04C0AB01BF010E94EB061F910F9119
:1010D000089514964D915C91DA01A61BB70BBD01E2
:1010E000DC0116964D915C91DA01AE1BBF0BFD0140
:1010F0003197621B730BF7FDE9CFDC0116964D911A
:101100005C91E417F50714F7AF010E949A07DECF50
:1011100016964D915C91DA01A61BB70BBD01621BBF
:10112000730BCECFFC0177FD64C080859185681775
:1011300079070CF05EC057FD5CC082859385481727
:1011400059070CF056C086898230B1F0833029F1FE
:10115000813041F484819581841B950BAB01BC01E6
:10116000615071092130310509F108F443C0223082
:10117000310509F463C0089584819581DC01A61BC3
:10118000B70BBD016150710986819781DC01A41BF9
:10119000B50BAD0141505109E5CF86819781861B82
:1011A000970BBA01AC0141505109DCCFCA0157FD80
:1011B0000796A3E095958795AA95E1F7A481B58157
:1011C0008A9F90018B9F300D9A9F300D1124620FE2
:1011D000731F078CF0A1E02DE60FF71F477055270E
:1011E00021E030E001C0220F4A95EAF78081822B8E
:1011F00080830895CA0157FD079633E0959587953A
:101200003A95E1F7A481B5818A9F90018B9F300DBB
:101210009A9F300D1124620F731F078CF0A1E02DEF
:10122000E60FF71F4770552781E090E001C0880F57
:101230004A95EAF7809590818923DACFCA0157FD54
:10124000079623E0959587952A95E1F7A481B581C6
:101250008A9F90018B9F300D9A9F300D1124620F51
:10126000731F078CF0A1E02DE60FF71F477055277D
:1012700021E030E001C0220F4A95EAF78081822701
:10128000B7CF08958EBD00000DB407FEFDCF8EB51B
:1012900008958CBD9DBD08950895FC016370668B13
:1012A0008481958126813781613039F0633029F05E
:1012B0009187808733872287089531872087938796
:1012C000828708952F923F924F925F926F927F9202
:1012D0008F929F92AF92BF92CF92DF92EF92FF9246
:1012E0000F931F93CF93DF93CDB7DEB76A970FB6F7
:1012F000F894DEBF0FBECDBF9A8F898F7A83698342
:101300004A01D22E18870F833701BC2CDC01599675
:101310002D913C915A972115310509F015C1189668
:101320008D919C911997681779070CF0D7C11A967F
:101330008D919C91481759070CF0D0C14C2C512C21
:10134000B6E0CB9E600D711D11247C876B8716164D
:1013500017060CF0C3C1EA2DF0E0FA87E98793E0A5
:10136000EE0FFF1F9A95E1F7F88BEF87CF01840FFF
:10137000951F181619060CF0B1C1A98DBA8D589693
:101380008C91811104C0BFEABD1508F4D394A98DD6
:10139000BA8DED91FC9111970284F385E02DCD017A
:1013A0000995B5E0DB9EC0011124E981FA81FC8337
:1013B000EB83312C212C9C012E533F4F388F2F8BE8
:1013C0004A2D50E05E8B4D8BEF89F88DE20DF31DB9
:1013D00044919E828D82D12CC12C69817A81620DCB
:1013E000731D7A8B698B842F90E09C8B8B8BE98D9E
:1013F000FA8DA081B18140FF82C0F1E0BF126FC0C1
:10140000AF126DC01C96ED91FC912F813885A4011F
:101410004C0D5D1D69897A89898D9A8D0995EB89B5
:10142000FC89F595E7954E2F5FEFC51AD50A6D81BA
:101430007E818D899E89680F791F7E836D8398E0F8
:10144000C916D10481F6AFEF2A1A3A0AEB81FC8162
:10145000E40DF51DFC83EB83F5E02F16310409F054
:10146000B3CF2F81388526153705B9F0A98DBA8DF0
:10147000ED91FC91B1E0BB1257C0AB1255C0698130
:101480007A816B5F7F4F0088F189E02D830128E02E
:1014900030E0A401898D9A8D0995A98DBA8DED91C1
:1014A000FC9111970688F789E02DCD016A960FB659
:1014B000F894DEBF0FBECDBFDF91CF911F910F918A
:1014C000FF90EF90DF90CF90BF90AF909F908F9064
:1014D0007F906F905F904F903F902F9009941E9651
:1014E000ED91FC91EF80F88409851A8592014D8178
:1014F0005E816B817C81898D9A8D099590CF2F813A
:1015000038852615370509F48ACF31E0B31207C0B4
:10151000A31205C01C96ED91FC91930178CF1E9605
:10152000ED91FC917301E0CF6B857C8564197509A1
:101530000684F785E02D73010F8518899201A401B7
:10154000898D9A8D0995A9CFF90134969491329796
:1015500045915491D91AB7E0DB9E400D511D1124DD
:10156000F901259134913C8B2B8BFA012590349015
:10157000FA013296749031963491398B3296649098
:101580003196449041E04C1518F04A1508F07FC0A0
:10159000662D062C000C770B7C836B83842D042C2A
:1015A000000C990B9E838D83A98DBA8DED91FC91D2
:1015B00011970284F385E02DCD010995512CD12C92
:1015C000C12CEA2DF0E0FA87E9872B2D30E03C872B
:1015D0002B87A401440D511D47FC5A95588F4F8B02
:1015E00069817A81660D711D67FC7A957E876D87AA
:1015F0007989C71608F051CF2C2D30E04D815E81DE
:10160000420F531FA985BA854A9FC0014B9F900D79
:101610005A9F900D1124FC01E80DF91DF88BEF87FE
:10162000852D612C4F89588D420F531F5E8B4D8B3A
:10163000671408F050C044244394480E877041F466
:10164000C1010196EB89FC89E20DF31DD4901C01C8
:10165000D7FE19C0A98DBA8DED91FC91662D70E071
:10166000B1E0BB1219C0AB1217C02D853E85620FC9
:10167000731F0484F585E02D2F8138854D895E899F
:10168000898D9A8D0995DD0C6394842DD1CF1E82AE
:101690001D821C821B8288CF4B815C81640F751F69
:1016A000AB85BC856A9FC0016B9F900D7A9F900DA2
:1016B000112469817A81680F791F0684F785E02DEE
:1016C000EF80F88409851A859D014F855889898D99
:1016D0009A8D0995D8CF570CC3948ACF6A960FB6C6
:1016E000F894DEBF0FBECDBFDF91CF911F910F9158
:1016F000FF90EF90DF90CF90BF90AF909F908F9032
:101700007F906F905F904F903F902F9008958F92B1
:101710009F92AF92CF92EF92FF920F931F93CF932E
:10172000DF93EC01262F898D9A8D009709F051C027
:101730006A30D1F41D861C868D8948E0849F900113
:1017400011248E859F85820F931F9F878E8781E04E
:1017500090E0DF91CF911F910F91FF90EF90CF908C
:10176000AF909F908F9008956D3089F3CC88AD88AD
:101770008F898823C1F08C859D8536E0C39E800DBE
:10178000911D1124488559854817590764F44E85E1
:101790005F851D861C8638E0A39EC0011124840F3E
:1017A000951F9F878E87EA88FB88088919894E854F
:1017B0005F856C857D85CE010E9462092C898C85B0
:1017C0009D8546E0249F800D911D11249D878C8767
:1017D000BECF6A3069F41D861C86FC013696E49102
:1017E0002D898E859F85E29F800D911D1124ADCF9F
:1017F0006D3009F4ACCFFC0134963491631708F4D2
:10180000A6CF3196E491E61708F4A1CFFC013296F9
:1018100085909490462F431B342F47E0349F800CD3
:10182000911C1124F401329634913196E4913323C2
:10183000A9F1EE2399F1CC88F4013596E491AD88B5
:101840004F89442301F10E2E000CFF0BE30FF11D15
:10185000CE9EA001CF9E500D11246C857D85460F34
:10186000571F68857985641775076CF44E855F8509
:101870001D861C86FC013696E491AE9E400D511DDE
:1018800011245F874E87EA88FB88088919894E856D
:101890005F856C857D85CE010E946209F4013496D6
:1018A000E4912C898C859D85E29F800D911D1124EA
:1018B0008DCF6F927F928F929F92AF92BF92CF9275
:1018C000DF92EF92FF920F931F93CF93DF93EC0180
:1018D0006B015A0139014801E881F9810284F385DD
:1018E000E02D0995E881F9810288F389E02D8701CF
:1018F0009301A501B601CE010995A501480D591D19
:1019000041505109E881F9810288F389E02D930162
:10191000B601CE010995E881F9810088F189E02DB1
:101920009401A501B601CE010995C60CD71CB601DC
:1019300061507109E881F9810088F189E02D9401F5
:10194000A501CE010995E881F9810688F789E02D86
:10195000CE01DF91CF911F910F91FF90EF90DF901B
:10196000CF90BF90AF909F908F907F906F90099491
:101970006F927F928F929F92AF92BF92CF92DF929F
:10198000EF92FF920F931F93CF93DF935C01EB01D4
:101990006A01490138018701DC01ED91FC91621770
:1019A000730719F5641675062CF0962D872D3A01EC
:1019B000C92ED82E9601261937092F5F3F4F048C68
:1019C000F58DE02DA301BE01C5010995DF91CF91F1
:1019D0001F910F91FF90EF90DF90CF90BF90AF904D
:1019E0009F908F907F906F9008954615570591F4C2
:1019F0002617370724F0892D4B01C22FD82F9E01BF
:101A0000281939092F5F3F4F068CF78DE02DA6016D
:101A1000B401DACF0284F385E02D0995D501ED916B
:101A2000FC910488F589E02D83019401A601BE0193
:101A3000C5010995D501ED91FC910688F789E02D46
:101A4000C501DF91CF911F910F91FF90EF90DF9033
:101A5000CF90BF90AF909F908F907F906F900994A0
:101A6000EF92FF920F931F93DC011A960D911C9138
:101A70001B9718962D913C911997ED91FC9100A020
:101A8000F1A1E02D7B0150E040E070E060E00995BD
:101A90001F910F91FF90EF9008954F925F926F9278
:101AA0007F928F929F92AF92BF92CF92DF92EF92EE
:101AB000FF920F931F93CF93DF936C012B015A0179
:101AC00039014801DC01ED91FC910284F385E02DA0
:101AD0000995E201640C751CD601ED91FC91C615C7
:101AE000D7055CF40088F189E02D87019401A501F8
:101AF000BE01C60109952196EFCF0688F789E02D32
:101B0000C601DF91CF911F910F91FF90EF90DF9071
:101B1000CF90BF90AF909F908F907F906F905F908D
:101B20004F9009948F929F92AF92BF92CF92DF9283
:101B3000EF92FF920F931F93CF93DF93EC015B0122
:101B40004A016901E881F9810284F385E02D099554
:101B500095012C0D3D1D21503109E881F981048842
:101B6000F589E02D78018401A401B501CE01099524
:101B7000E881F9810688F789E02DCE01DF91CF91C8
:101B80001F910F91FF90EF90DF90CF90BF90AF909B
:101B90009F908F9009948F929F92AF92BF92CF9215
:101BA000DF92EF92FF920F931F93CF93DF93EC019D
:101BB0005B014A0169017801E881F9810284F385BA
:101BC000E02D0995C80CD91C860101501109E88146
:101BD000F9810488F589E02D9501A401B501CE01B4
:101BE0000995E881F9810688F789E02DCE01DF911A
:101BF000CF911F910F91FF90EF90DF90CF90BF900A
:101C0000AF909F908F900994EF92FF920F931F9344
:101C1000DC01ED91FC9100A0F1A1E02D09951F914F
:101C20000F91FF90EF9008950F931F93DC01ED91BA
:101C3000FC91068CF78DE02D09951F910F91089569
:101C40000F931F93DC01ED91FC91048CF58DE02D39
:101C500009951F910F910895DC01ED91FC9100848D
:101C6000F185E02D09943F924F925F926F927F929F
:101C70008F929F92AF92BF92CF92DF92EF92FF929C
:101C80000F931F93CF93DF935C017B014A0169019E
:101C9000390187E0680E711C93E0759467949A95FA
:101CA000E1F72B01400E511E10E000E0312CD0E096
:101CB000C0E0CE0187709927330C892B59F4FE01BF
:101CC00083E0F595E7958A95E1F7E00FF11FE80DC0
:101CD000F91D349037FE0AC021E030E0A701B501BC
:101CE0006C0F7D1F82E393E00E942C0E2196CC1690
:101CF000DD06F9F68FEFE81AF80A060D171DE41451
:101D0000F504A9F6DF91CF911F910F91FF90EF900D
:101D1000DF90CF90BF90AF909F908F907F906F900B
:101D20005F904F903F9008952F923F924F925F9215
:101D30006F927F928F929F92AF92BF92CF92DF92DB
:101D4000EF92FF920F931F93CF93DF9300D000D0B9
:101D500000D0CDB7DEB73C016A013E832D83FC8203
:101D6000EB825801A41AB50AB7FE03C0B194A1943E
:101D7000B1088D809E80861A970A97FE03C09194C1
:101D8000819491088A149B045CF0902F812F0D811F
:101D90001E819D838E839C2D8D2D6B01692F782F45
:101DA0000C151D055CF09D818E817E836D83692FEE
:101DB000782F902F812F8601C92ED82E1601201A38
:101DC000310A2B012D813E81421A530A57FE03C06E
:101DD000519441945108710137FE03C03FEFE31A5B
:101DE000F30AF594E7948D819E81861797075CF539
:101DF000A1E0B0E0BA83A983C016D1064CF1D301AB
:101E0000ED91FC910484F585E02D2B813C81A801A6
:101E10006D817E818A149B041CF04D815E81B80126
:101E2000C3010995E418F508F7FE0AC02D813E812B
:101E300089819A81280F391F3E832D83E20CF31C80
:101E40000F5F1F4FD9CF2FEF3FEF3A832983D4CFB6
:101E500026960FB6F894DEBF0FBECDBFDF91CF91AF
:101E60001F910F91FF90EF90DF90CF90BF90AF90B8
:101E70009F908F907F906F905F904F903F902F90AA
:101E80000895089585ED8093BC008091BC0084FD89
:101E9000FCCF1092190208952091C201260F33271A
:101EA000331F21323105ECF420911902FC0190E03E
:101EB00080E0243069F082E00895A091C201219170
:101EC000AC014E555E4FA40FB52FB11D2C9301965A
:101ED000861798F38091C201680F6093C20180E079
:101EE000089581E00895E0911B0280911A02E8179D
:101EF00030F4F0E0EE57FE4F808190E008958FEFD0
:101F00009FEF089590911B0280911A022FEF3FEFEF
:101F1000981748F4E92FF0E0EE57FE4F208130E0AB
:101F20009F5F90931B02C901089580911A029091BE
:101F30001B02891B990B0895CF92DF92EF92FF92BB
:101F40000F931F93CF93DF937C01CB018A012091E4
:101F50002503222389F0EB016B01C40ED51ECC159D
:101F6000DD0569F06991D701ED91FC910190F08157
:101F7000E02DC7010995F3CF642F0E944C0FC801D3
:101F8000DF91CF911F910F91FF90EF90DF90CF9055
:101F90000895CF93DF931F92CDB7DEB76983209169
:101FA00025032223F9F020912203203258F021E06A
:101FB00030E0FC013383228390E080E00F90DF91DA
:101FC000CF91089580912303E82FF0E0EE59FE4F62
:101FD000998190838F5F809323038093220381E014
:101FE00090E0ECCF61E0CE0101960E944C0FF7CF5C
:101FF0002091220381E0213208F044C0809119022F
:102000008111FCCF8091240392E09093190291E01A
:10201000909318029FEF9093E5011092070220938E
:102020000602A2E6B1E0E6EEF1E090E0291331C04D
:102030001092080290910802880F892B8093080261
:1020400080911702813049F51092170280910802A1
:102050008093BB008091BC0083FDF8CF85EC80931A
:10206000BC00809119028230E1F38091E5018F3F3D
:10207000B1F08091E5018032A1F08091E5018033DB
:1020800091F084E010922303109222031092250312
:1020900008953D9131939F5FC9CF85EEE0CF80E0F9
:1020A000F1CF82E0EFCF83E0EDCFFF920F931F934C
:1020B000CF93DF93F82ED92FC62F80914F039091A5
:1020C0005003009709F452C02091530331E030933C
:1020D0002503209324031092230310922203DC0192
:1020E000ED91FC910190F081E02D60E009950F2DBC
:1020F0001D2FD1E0FF24F394C15080914F039091A4
:102100005003CF3F61F1D032C8F00E94F80F8091A8
:102110004F039091500320915303F0922503209395
:1021200024031092230310922203DC01ED91FC9111
:102130000190F081E02D60E00995D1E080914F039E
:1021400090915003F8016491DC01ED91FC910190B4
:10215000F081E02D0995DF5F0F5F1F4FCDCFDF913D
:10216000CF911F910F91FF900C94F80FE0915F03B6
:10217000F09160039081809165038095892380832D
:102180000F2D1D2FC15008F438C0F8018491209103
:102190004D0330914E03232B29F00E9442090F5F1B
:1021A0001F4FF0CF28E030E040E8E0915B03F09172
:1021B0005C0390916303582F5423D9F05081952BE1
:1021C0009083E0915D03F0915E03908150916403F0
:1021D000952B9083E0915D03F0915E035081909187
:1021E0006403909595239083469521503109E9F633
:1021F000D6CF508190959523E3CFDF91CF911F915A
:102200000F91FF9008951F93CF93DF93EC018D8D75
:102210009E8D009721F1162F29A131E030932503DF
:10222000209324031092230310922203DC01ED91EA
:10223000FC910190F081E02D60E009958D8D9E8DDF
:10224000DC01ED91FC910190F081E02D612F099569
:102250008D8D9E8DDF91CF911F910C94F80FADA5C0
:10226000BEA59C918BA9809589238C938B8D9C8D89
:10227000892B31F0862FDF91CF911F910C94420969
:1022800028E030E080E8A9A5BAA599A9462F4823FF
:10229000C1F04C91942B9C93ABA5BCA59C914AA9F1
:1022A000942B9C93ABA5BCA54C919AA99095942393
:1022B0009C9386952150310931F7DF91CF911F9181
:1022C00008954C9190959423E6CFEF92FF920F934F
:1022D0001F93CF93DF9380914F0390915003892BED
:1022E00009F493C02091670330916803409169031A
:1022F00050916A0360E074E284EF90E00E94111D47
:10230000205131094109510956954795379527952F
:102310002093B80065E084E99BE00E94551060912D
:102320003603615082E393E00E9403112091380349
:1023300030913903C901079697FD079623E09595DB
:1023400087952A95E1F72091360330913703829FD4
:102350008001839F100D929F100D1124C091510395
:10236000D091520380914F03909150030C0F1D1F89
:10237000009709F489C02091530331E0309325037D
:10238000209324031092230310922203DC01ED9189
:10239000FC910190F081E02D60E40995FF24F39415
:1023A000EE24E39480914F03909150030C171D0786
:1023B00009F442C0BFE1BF15D0F40E94F80F80912C
:1023C0004F039091500320915303E09225032093F3
:1023D00024031092230310922203DC01ED91FC915F
:1023E0000190F081E02D60E40995FF24F394809141
:1023F0004F03909150036991DC01ED91FC910190A4
:10240000F081E02D0995F394CDCF80914D0390910B
:102410004E03892B31F080917003909171030E94DB
:102420004909E0916103F091620390818091660314
:102430008095892380836ECF0E94F80F80914F038F
:1024400090915003892B09F460C020916B03309167
:102450006C0340916D0350916E0360E074E284EF71
:1024600090E00E94111D20513109410951095695F2
:102470004795379527952093B800DF91CF911F910D
:102480000F91FF90EF900895E0915F03F09160034A
:10249000808190916503892B80830C171D0771F251
:1024A000899120914D0330914E03232B19F00E9406
:1024B0004209F3CF28E030E040E8E0915B03F0917F
:1024C0005C0390916303582F5423D9F05081952BCE
:1024D0009083E0915D03F0915E03908150916403DD
:1024E000952B9083E0915D03F0915E035081909174
:1024F0006403909595239083469521503109E9F620
:10250000CCCF508190959523E3CFE0916103F0917A
:102510006203808190916603892B8083AECF1F93E5
:10252000CF93DF93EC01162F8D8D9E8D892BB1F10A
:102530002DA93EA94FA958AD60E074E284EF90E068
:102540000E94111D205131094109510956954795A5
:10255000379527952093B80066EA111167EACE01F6
:102560000E9403118D8D9E8D892B41F129AD3AADCD
:102570004BAD5CAD60E074E284EF90E00E94111D11
:1025800020513109410951095695479537952795AD
:102590002093B800DF91CF911F9108958B8D9C8D72
:1025A000892B21F08EAD9FAD0E944909EFA5F8A9B6
:1025B00090818CA9809589238083CECFEFA5F8A93F
:1025C00080819CA9892B8083E5CF90E080E00895ED
:1025D0002091380330913903C901079697FD07967A
:1025E00023E0959587952A95E1F720913603309160
:1025F0003703829FA001839F500D929F500D11249D
:1026000070E060E080915103909152030C94631E3E
:102610008F929F92AF92BF920F931F93CF93DF93AE
:10262000CDB7DEB7A1970FB6F894DEBF0FBECDBF12
:1026300019A2423008F44AE08E010F5D1F4F842E2C
:10264000912CB12CA12CA50194010E94111DE62F03
:10265000B901CA01EA3044F5E05DD801EE938D017D
:10266000232B242B252B79F790E080E0109769F03D
:10267000FD0101900020E9F73197AF014A1B5B0B88
:10268000BD0182E393E00E941B06A1960FB6F89469
:10269000DEBF0FBECDBFDF91CF911F910F91BF90D5
:1026A000AF909F908F900895E95CD7CFBC01990FB0
:1026B000880B990B4AE00C940813FC010190002050
:1026C000E9F73197AF01481B590BBC0182E393E056
:1026D0000C941B060E945E1E1F920F920FB60F9263
:1026E00011242F933F938F939F93AF93BF93809128
:1026F0000A0290910B02A0910C02B0910D02309150
:10270000090223E0230F2D3758F50196A11DB11DB5
:102710002093090280930A0290930B02A0930C026B
:10272000B0930D0280910E0290910F02A0911002C1
:10273000B09111020196A11DB11D80930E029093DC
:102740000F02A0931002B0931102BF91AF919F911D
:102750008F913F912F910F900FBE0F901F90189562
:1027600026E8230F0296A11DB11DD2CF1F920F9212
:102770000FB60F9211242F933F934F935F936F9354
:102780007F938F939F93AF93BF93EF93FF9380912A
:10279000B900887F803609F44AC0F0F5883209F420
:1027A000A7C018F5803109F49BC0B8F4882309F458
:1027B000F9C0883009F494C0FF91EF91BF91AF91B7
:1027C0009F918F917F916F915F914F913F912F9149
:1027D0000F900FBE0F901F901895883109F488C094
:1027E000803251F78093E50114C0803409F49DC014
:1027F00040F48033B9F38833F9F68093E50185EC32
:10280000B0C0803509F485C0883509F496C0883495
:1028100099F60E94420FD0CF883909F48CC038F560
:10282000883729F050F4883611F0803729F683E094
:10283000809319021092E40157C0883809F47BC0D4
:10284000803919F0803809F0B7CF8091E4018032E7
:1028500008F071C0E091E40181E08E0F8093E40103
:102860008091BB00F0E0EC53FE4F80833DC0803B85
:1028700039F0E0F4803A09F479C0883A09F09CCF45
:1028800084E0809319021092C3011092C201E0917A
:102890001502F091160209958091C20181110FC0B5
:1028A00081E08093C2011092A20109C0803C09F42A
:1028B000A6CF883C09F4A3CF883B09F07DCFE091F7
:1028C000C30181E08E0F8093C301F0E0EE55FE4F0F
:1028D00080818093BB009091C3018091C20129C087
:1028E000809108028093BB0085EC8093BC0064CF8C
:1028F0009091070280910602981758F5E09107021F
:1029000081E08E0F80930702F0E0EA51FE4F808154
:10291000E9CFE091070281E08E0F8093070280915A
:10292000BB00F0E0EA51FE4F808390910702809156
:1029300006029817C8F285E8D8CFE091070281E037
:102940008E0F809307028091BB00F0E0EA51FE4FAA
:1029500080838091180281115CCF81E080931702FF
:1029600084EA8093BC001092190226CF85EC8093F4
:10297000BC00109219028091E401803230F4E091A1
:10298000E401F0E0EC53FE4F10826091E40170E04E
:10299000E0911302F091140284EC91E009951092F9
:1029A000E4010ACF1092E50134CFA6E2B3E013961A
:1029B0001C921E92129748EE53E060E070E014966D
:1029C0004D935D936D937C9317978BE091E01196F7
:1029D0009C938E93E2E3F3E01382128220E830E0CE
:1029E0003583248380E490E0978386833187208732
:1029F00093878287168A158614861786168681E045
:102A0000858B848B2FEF3FEF338B228B318B208B89
:102A1000878B108E128E118E8DE191E091838083D1
:102A2000148E138EB68FA58F10A2178E8FEF84A3EE
:102A300085A386A387A384E080A780E89AE1A6E027
:102A4000B0E085AB96ABA7ABB0AF80EA96E8A1E06B
:102A5000B0E081AF92AFA3AFB4AF80E586AF17AE61
:102A60000895CF93DF93CDB7DEB72E970FB6F894C6
:102A7000DEBF0FBECDBF789484B5826084BD84B5BF
:102A8000816084BD85B5826085BD85B5816085BD69
:102A900080916E00816080936E0010928100809121
:102AA00081008260809381008091810081608093A9
:102AB0008100809180008160809380008091B100CE
:102AC00084608093B1008091B00081608093B000F9
:102AD00080917A00846080937A0080917A0082608D
:102AE00080937A0080917A00816080937A0080914F
:102AF0007A00806880937A001092C100809151031F
:102B000090915203892B11F10E94E8122091380311
:102B1000309139038091360390913703213231058A
:102B20000CF070C2B9016052710977FF02C06F5F8B
:102B30007F4F759567958357910997FD019600E240
:102B400010E023E730E048EF55E06FC220913803F2
:102B500030913903C901079697FD0796B3E0959523
:102B60008795BA95E1F720913603309137038C01B0
:102B7000029FC001039F900D129F900D11240E948F
:102B8000391D9093520380935103892B09F0BCCFD8
:102B90000E94651181E08093000187EA90E09093A4
:102BA0001D0280931C0268EE73E080E090E00E94BA
:102BB000B9060E94940660931E0370931F038093CE
:102BC0002003909321030EE112E02EE932E03A83D4
:102BD00029838091000130E4839FC00111248093F8
:102BE0007C0080917A00806480937A0080917A00E2
:102BF00086FDFCCF909178008091790089279827F5
:102C0000892797FD0796E3E095958795EA95E1F783
:102C1000A981BA818D93BA83A983F80111928F019A
:102C20000E9494066B017C0180911E0390911F030A
:102C3000A0912003B091210340911C0250911D02EC
:102C400070E060E0C81AD90AEA0AFB0AC416D50681
:102C5000E606F70628F3840F951FA61FB71F80937B
:102C60001E0390931F03A0932003B09321032EE132
:102C700033E049815A812417350709F0AACF7EE154
:102C8000E72E72E0F72EAEE9B2E090E080E041E09E
:102C900050E020E830E035952795B901680F791F9D
:102CA00060387105C4F7B901615071098623972313
:102CB000820F931F48175907BCF411962C91119756
:102CC0008C0102561D4FF801308111963C931197EB
:102CD0002083F70121818C01025E1D4FF8013081B4
:102CE000F7013183F80120834F5F5F4F1196FFEFAB
:102CF000EF1AFF0A4038510561F697E0A92EB12C72
:102D000041E050E0BA01660F771F01E010E00A2CA5
:102D100002C0000F111F0A94E2F71E830D8388E999
:102D2000482E8AE0582E30E020E0CA0182569D4F9E
:102D300098878F83DA01A25EBD4FBA87A987F20117
:102D4000E05CFF4F9491F2018491E92F990FFF0B02
:102D50008F01159507951A8309838195082E000C1C
:102D6000990BDC01B595A795BC83AB836F80788404
:102D7000620E731E89849A84820E931EF901E256B4
:102D8000FD4F8901025E1D4F1E870D87D3011C91E7
:102D9000812F110F990B9C878B87A981BA818C0198
:102DA000A09FC001A19F900DB09F900D1124D40150
:102DB0000C91002E000C110BAB81BC81A09F700107
:102DC000A19FF00CB09FF00C11246C01CC0CCD2C09
:102DD000CC1CDD081701220C232C221C3308C2183E
:102DE00086FB882780F9C80EE6FAEE24E0F8CE18B4
:102DF00089819A81809F7001819FF00C909FF00CD7
:102E000011248B859C85A89F8001A99F100DB89FD8
:102E1000100D11241801220C232C221C3308C70189
:102E2000880F892F881F990B280EE6FAEE24E0F808
:102E3000E20C06FB002700F90E0DAD85BE852C9037
:102E4000022C000C3308359427948081082E000C46
:102E5000990B95958795982F9C19D3019C93922D4A
:102E6000901BD4019C93C80EC082020DAD85BE8517
:102E70000C93660E771E860E971EE60FF71FA60FA1
:102E8000B71FBE87AD87CF018E599240803891051C
:102E90000CF47CCF2F5F3F4F0D811E81400E511EE1
:102EA0004217530709F04BCF11E0A11AB108AB014B
:102EB00009F028CF0E94E8120E94E81210923F0306
:102EC00010923E03109241031092400321E02093A0
:102ED00046032093470341E050E05093450340935D
:102EE0004403509343034093420385E491E00E94DE
:102EF0005D1380E890E00E94561310923F031092F9
:102F00003E0368E070E070934103609340038FE4F8
:102F100091E00E945D1388EB9BE00E9456138FE5C1
:102F200091E00E945D1310923F0310923E0380E1F6
:102F300090E090934103809340031A821982298084
:102F40003A809FEF291A390AA98109811A81A0FDC7
:102F50006BC215950795F801E256FD4F6081062E6C
:102F6000000C770B880B990B0E943E1B6B017C01B8
:102F7000F801E25EFD4F6081062E000C770B880B96
:102F8000990B0E943E1B9B01AC010E94221C4B012D
:102F90005C01A7019601C701B6010E94221C9B019A
:102FA000AC01C501B4010E949A1A0E94951C0E94AE
:102FB000CA1B20E030E040EA51E40E94221C0E943B
:102FC000061B0FE310E0061B170BEE24E394F12C15
:102FD00029813A814FE350E0B90182E393E00E94F6
:102FE000B80C3A822982F101E038F10509F0A7CF47
:102FF0000E94651100E010E0012B09F4DACD0E9477
:103000000000D7CDB9016054710977FF02C06F5F2E
:103010007F4F759567958255910997FD019600E45C
:1030200010E022E530E048ED57E0959587950E9445
:10303000330E82E08093540380914F0390915003AC
:10304000892B09F4B4C08CE38093530310921B02C4
:1030500010921A0210922303109222031092190266
:1030600081E0809318021092170261E082E10E94D1
:10307000480661E083E10E9448068091B9008E7F96
:103080008093B9008091B9008D7F8093B90088E466
:103090008093B80085E48093BC0089E196E090932A
:1030A0001602809315028AE196E0909314028093B1
:1030B000130280915A0387FD1DC00E94F90561E04B
:1030C00080915A030E94480661E070E080E090E041
:1030D0000E94B90660E080915A030E9448066AE0A7
:1030E00070E080E090E00E94B90661E080915A03B0
:1030F0000E94480680914F0390915003892B09F458
:1031000010C1209167033091680340916903509189
:103110006A0360E074E284EF90E00E94111D205188
:1031200031094109510956954795379527952093BF
:10313000B80064E084EF95E00E9455106091380378
:10314000615082E393E00E94031164E080EF95E018
:103150000E9455108091540360E1813009F064E1D0
:1031600082E393E00E94031164E08CEE95E00E94FC
:1031700055108FE880936F03809136039091370349
:103180008038910509F0E6C08091380390913903A9
:103190008034910509F03CC180915403813009F0DD
:1031A000D7C08FE980936F0312E11983E7C0809144
:1031B00058030E94F905809159030E94F9058091F6
:1031C0005803082E000C990BFC01E459F44FE491CC
:1031D000F0E0EE0FFF1FE85AF44F25913491309341
:1031E000600320935F03FC01E058F44FE491E09307
:1031F000650380915903082E000C990BFC01E459DA
:10320000F44FE491F0E0EE0FFF1FE85AF44FA59160
:10321000B491B0936203A0936103FC01E058F44FB2
:10322000E491E09366038C91E82BEC9380914D033D
:1032300090914E03892B09F433C01FB71983F8947A
:1032400080911202811124C0E6E7FBE08491EAE854
:10325000FBE09491E82FF0E0EE0FFF1FEE59F44FE2
:10326000A591B491EC91E92321F461E08AE00E94F8
:1032700048068AE00E94F9058CB580618CBD8CB54A
:1032800080648CBD8DE00E94F9058BE00E94F905F9
:10329000809112028F5F8093120209810FBF09CFC4
:1032A000809156030E94F905809157030E94F90509
:1032B00080915603082E000C990BFC01E459F44F41
:1032C000E491F0E0EE0FFF1FE85AF44F259134919E
:1032D00030935C0320935B03FC01E058F44FE491CE
:1032E000E093630380915703082E000C990BFC01B7
:1032F000E459F44FE491F0E0EE0FFF1FE85AF44F69
:10330000A591B491B0935E03A0935D03FC01E058D6
:10331000F44FE491E09364038C91E095E823EC93FF
:10332000C8CE80914D0390914E03892B31F080914E
:103330007003909171030E944909E0916103F0913B
:103340006203908180916603809589238083F1CE0A
:103350008FEC28CF8036910579F4809138039091D5
:103360003903409709F054C080915403813009F02B
:103370004DC080E180936F0302E009836AED82E330
:1033800093E00E940311698182E393E00E9403119C
:1033900061E882E393E00E94031160916F0382E38E
:1033A00093E00E94031169ED82E393E00E94031110
:1033B0008091540362E2813009F061EF82E393E08F
:1033C0000E94031166E086EE95E00E945510809100
:1033D0004F0390915003892BE9F020916B033091BA
:1033E0006C0340916D0350916E0360E074E284EFD2
:1033F00090E00E94111D2051310941095109569553
:103400004795379527952093B800C2CB8FEAB2CF66
:1034100012E0CBCEE0916103F09162038081909144
:103420006603892B8083B4CB01501109159507954C
:10343000F801E256FD4F6081062E000C770B880BD9
:10344000990B0E943E1B6B017C01F801E25EFD4F6F
:103450006081062E000C770B880B990B0E943E1B97
:103460004B015C01A7019601C701B6010E94221C15
:103470006B017C01A5019401C501B4010E94221CCD
:103480009B01AC01C701B6010E949A1A0E94951CCB
:103490004B015C01810115950795F801E256FD4F3E
:1034A0006081062E000C770B880B990B0E943E1B47
:1034B0006B017C01F801E25EFD4F6081062E000C7D
:1034C000770B880B990B0E943E1B2B013C01A70137
:1034D0009601C701B6010E94221C6B017C01A30169
:1034E0009201C301B2010E94221C9B01AC01C701E1
:1034F000B6010E949A1A0E94951C9B01AC01C5015D
:10350000B4010E949A1A20E030E040E05FE30E949C
:10351000221C4DCD8DE191E09093330380933203D3
:103520008091510390915203009711F00C94D51D96
:1035300008955058BB27AA270E94B11A0C94901BDB
:103540000E94821B38F00E94891B20F039F49F3FB3
:1035500019F426F40C947F1B0EF4E095E7FB0C9411
:10356000791BE92F0E94A11B58F3BA176207730752
:103570008407950720F079F4A6F50C94C31B0EF48C
:10358000E0950B2EBA2FA02D0B01B90190010C0173
:10359000CA01A0011124FF27591B99F0593F50F48B
:1035A000503E68F11A16F040A22F232F342F4427E3
:1035B000585FF3CF469537952795A795F0405395DB
:1035C000C9F77EF41F16BA0B620B730B840BBAF0AB
:1035D0009150A1F0FF0FBB1F661F771F881FC2F716
:1035E0000EC0BA0F621F731F841F48F4879577952A
:1035F0006795B795F7959E3F08F0B0CF9395880FE4
:1036000008F09927EE0F9795879508950E940D1B56
:103610006894B1110C94C41B08950E94A91B88F0F2
:103620009F5798F0B92F9927B751B0F0E1F0660F86
:10363000771F881F991F1AF0BA95C9F714C0B130C7
:1036400091F00E94C31BB1E008950C94C31B672F37
:10365000782F8827B85F39F0B93FCCF386957795F6
:103660006795B395D9F73EF49095809570956195DF
:103670007F4F8F4F9F4F0895E89409C097FB3EF40A
:1036800090958095709561957F4F8F4F9F4F9923AF
:10369000A9F0F92F96E9BB279395F695879577952D
:1036A0006795B795F111F8CFFAF4BB0F11F460FFED
:1036B0001BC06F5F7F4F8F4F9F4F16C0882311F045
:1036C00096E911C0772321F09EE8872F762F05C059
:1036D000662371F096E8862F70E060E02AF09A95F4
:1036E000660F771F881FDAF7880F9695879597F9E9
:1036F000089597F99F6780E870E060E008959FEF74
:1037000080EC089500240A94161617061806090678
:10371000089500240A941216130614060506089547
:10372000092E0394000C11F4882352F0BB0F40F4CF
:10373000BF2B11F460FF04C06F5F7F4F8F4F9F4F0F
:10374000089557FD9058440F551F59F05F3F71F091
:103750004795880F97FB991F61F09F3F79F08795F8
:103760000895121613061406551FF2CF4695F1DF81
:1037700008C0161617061806991FF1CF8695710511
:10378000610508940895E894BB2766277727CB0145
:1037900097F908950E94DA1B29ED3BE54EED5EE3B3
:1037A0000C94221C16F00C94D51C0C947F1B68946E
:1037B0000C94791B0E94A91BA8F39923C1F3AEF3C3
:1037C000DF93CF931F930F93FF92C92FDD27882399
:1037D0002AF02197660F771F881FDAF720E030E084
:1037E00040E85FEB9FE3883920F0803E38F0219677
:1037F0008F770E949A1AE8E6F0E004C00E949A1AB5
:10380000E5E9F0E00E94EA1C8B01BE01EC01FB2E11
:103810006F5771097595771F880B990B0E943E1B96
:1038200028E132E741E35FE30E94351CAF2D9801A8
:10383000AE01FF900F911F91CF91DF910E94B11ABD
:103840000C94901B0E94351C0C94901B0E94821BB0
:1038500038F00E94891B20F0952311F00C94791BFD
:103860000C947F1B11240C94C41B0E94A11B70F3A9
:10387000959FC1F3950F50E0551F629FF001729F15
:10388000BB27F00DB11D639FAA27F00DB11DAA1F24
:10389000649F6627B00DA11D661F829F2227B00D71
:1038A000A11D621F739FB00DA11D621F839FA00DFC
:1038B000611D221F749F3327A00D611D231F849F4C
:1038C000600D211D822F762F6A2F11249F575040A3
:1038D0009AF0F1F088234AF0EE0FFF1FBB1F661F1E
:1038E000771F881F91505040A9F79E3F510580F0E7
:1038F0000C94791B0C94C41B5F3FE4F3983ED4F303
:10390000869577956795B795F795E7959F5FC1F78A
:10391000FE2B880F911D9695879597F9089519F4B8
:1039200016F40C947F1B0C94D51C0E94A91BB8F3B1
:103930009923C9F3B6F39F57550B87FF0E94E31CE9
:103940000024A0E640EA900180585695979528F407
:10395000805C660F771F881F20F0261737074807FF
:1039600030F4621B730B840B202931294A2BA69556
:1039700017940794202531254A2758F7660F771F9B
:10398000881F20F026173707480730F4620B730BA7
:10399000840B200D311D411DA09581F7B901842FA5
:1039A0009158880F9695879508959F3F31F09150D3
:1039B00020F4879577956795B795880F911D969513
:1039C000879597F9089591505040660F771F881F8B
:1039D000D2F70895DF93CF931F930F93FF92EF9247
:1039E000DF927B018C01689406C0DA2EEF010E9401
:1039F000351CFE01E894A59125913591459155918D
:103A0000A6F3EF010E94B11AFE019701A801DA9412
:103A100069F7DF90EF90FF900F911F91CF91DF91A9
:103A20000895A1E21A2EAA1BBB1BFD010DC0AA1FFF
:103A3000BB1FEE1FFF1FA217B307E407F50720F017
:103A4000A21BB30BE40BF50B661F771F881F991F92
:103A50001A9469F760957095809590959B01AC01DB
:103A6000BD01CF010895EE0FFF1F0590F491E02DE9
:103A700009940F931F93CF93DF938230910510F435
:103A800082E090E0E0917403F091750330E020E073
:103A9000B0E0A0E0309799F42115310509F44AC04F
:103AA000281B390B24303105D8F58A819B8161159B
:103AB000710589F1FB0193838283FE0111C040816E
:103AC00051810281138148175907E0F048175907BF
:103AD00099F4109761F012960C93129713961C9319
:103AE0003296CF01DF91CF911F910F9108950093EE
:103AF000740310937503F4CF2115310551F042176B
:103B0000530738F0A901DB019A01BD01DF01F8017B
:103B1000C1CFEF01F9CF9093750380937403CDCF9C
:103B2000FE01E20FF31F81939193225031093983F3
:103B30002883D7CF2091720330917303232B41F454
:103B40002091030130910401309373032093720399
:103B500020910101309102012115310541F42DB769
:103B60003EB74091050150910601241B350BE091B1
:103B70007203F0917303E217F307A0F42E1B3F0BBF
:103B80002817390778F0AC014E5F5F4F24173507CF
:103B900048F04E0F5F1F509373034093720381935D
:103BA00091939FCFF0E0E0E09CCFCF93DF9300971D
:103BB000E9F0FC01329713821282A0917403B09154
:103BC0007503ED0130E020E01097A1F420813181F0
:103BD000820F931F209172033091730328173907C6
:103BE00009F061C0F0937303E0937203DF91CF910A
:103BF0000895EA01CE17DF07E8F54A815B819E014F
:103C000041155105B1F7E901FB83EA8349915991C7
:103C1000C40FD51FEC17FD0761F4808191810296D6
:103C2000840F951FE90199838883828193819B8307
:103C30008A83F0E0E0E012968D919C9113970097B3
:103C4000B9F52D913C911197CD010296820F931FEA
:103C500020917203309173032817390739F6309792
:103C600051F51092750310927403B0937303A093EF
:103C70007203BCCFD383C28340815181840F951FCF
:103C8000C817D90761F44E5F5F4F88819981480F4B
:103C9000591F518340838A819B819383828321159D
:103CA000310509F0B0CFF0937503E09374039ECF14
:103CB000FD01DC01C0CF13821282D7CF81E090E0FA
:103CC000F8940C946A1EDC0101C06D934150504081
:103CD000E0F7089515E0CEECD5E004C0FE010E94A7
:0E3CE000331D2196CF3CD107C9F7F894FFCFD2
:103CEE000100007603800000000000C90F9C0FE564
:103CFE00121806950F820F730F00000000870B1B22
:103D0E0006E512410F920818062C0E040E200E1412
:103D1E000E940E18064D098F1202084B084D0D30E9
:103D2E000DB80C590C4646542062696E733D005313
:103D3E00746172743D30487A2053746F703D004840
:023D4E007A00F9
:00000001FF
