:100000000C9442050C946A050C946A050C946A05DC
:100010000C946A050C946A050C946A050C946A05A4
:100020000C946A050C946A050C946A050C946A0594
:100030000C946A050C946A050C946A050C946A0584
:100040000C9453110C946A050C946A050C946A057F
:100050000C946A050C946A050C946A050C946A0564
:100060000C949D110C946A0500000000003E5B4F4B
:100070005B3E3E6B4F6B3E1C3E7C3E1C183C7E3C08
:10008000181C577D571C1C5E7F5E1C00183C180016
:10009000FFE7C3E7FF0018241800FFE7DBE7FF30A6
:1000A000483A060E2629792926407F050507407F14
:1000B00005253F5A3CE73C5A7F3E1C1C08081C1C87
:1000C0003E7F14227F22145F5F005F5F06097F017D
:1000D0007F006689956A606060606094A2FFA29468
:1000E00008047E040810207E201008082A1C080836
:1000F0001C2A08081E101010100C1E0C1E0C303884
:100100003E3830060E3E0E06000000000000005F84
:1001100000000007000700147F147F14242A7F2AA0
:100120001223130864623649562050000807030062
:10013000001C2241000041221C002A1C7F1C2A08AE
:10014000083E080800807030000808080808000011
:1001500060600020100804023E5149453E00427F85
:10016000400072494949462141494D331814127FD4
:100170001027454545393C4A494931412111090774
:100180003649494936464949291E000014000000F5
:1001900040340000000814224114141414140041C7
:1001A00022140802015909063E415D594E7C121184
:1001B000127C7F494949363E414141227F414141BC
:1001C0003E7F494949417F090909013E4141517337
:1001D0007F0808087F00417F41002040413F017FA8
:1001E000081422417F404040407F021C027F7F0470
:1001F00008107F3E4141413E7F090909063E4151B9
:10020000215E7F09192946264949493203017F01A8
:10021000033F4040403F1F2040201F3F4038403FA9
:10022000631408146303047804036159494D4300BF
:100230007F4141410204081020004141417F0402F6
:10024000010204404040404000030708002054548D
:1002500078407F284444383844444428384444286B
:100260007F385454541800087E090218A4A49C78BE
:100270007F0804047800447D40002040403D007F1A
:100280001028440000417F40007C047804787C08FA
:100290000404783844444438FC18242418182424CE
:1002A00018FC7C08040408485454542404043F44B3
:1002B000243C4040207C1C2040201C3C4030403CE2
:1002C00044281028444C9090907C4464544C440042
:1002D00008364100000077000000413608000201A6
:1002E0000204023C2623263C1EA1A161123A404092
:1002F000207A38545455592155557941225454780F
:1003000042215554784020545579400C1E527212A7
:100310003955555559395454545939555454580030
:1003200000457C410002457D420001457C407D1234
:1003300011127DF0282528F07C5455450020545496
:100340007C547C0A097F4932494949323A44444441
:100350003A324A4848303A4141217A3A424020787C
:10036000009DA0A07D3D4242423D3D4040403D3C7D
:1003700024FF2424487E4943662B2FFC2F2BFF09A2
:1003800029F620C0887E0903205454794100004496
:100390007D413048484A32384040227A007A0A0A81
:1003A000727D0D19317D2629292F282629292926F4
:1003B00030484D4020380808080808080808382F39
:1003C00010C8ACBA2F102834FA00007B00000814C3
:1003D0002A142222142A14085500550055AA55AA99
:1003E00055AAFF55FF55FF000000FF00101010FF39
:1003F00000141414FF001010FF00FF1010F010F094
:10040000141414FC001414F700FF0000FF00FF1484
:1004100014F404FC141417101F10101F101F1414D0
:10042000141F00101010F0000000001F101010101A
:100430001F10101010F010000000FF10101010100E
:1004400010101010FF10000000FF140000FF00FF4C
:1004500000001F10170000FC04F4141417101714E8
:1004600014F404F40000FF00F7141414141414140A
:10047000F700F7141414171410101F101F1414147D
:10048000F4141010F010F000001F101F0000001FE7
:1004900014000000FC140000F010F01010FF10FF1A
:1004A000141414FF141010101F00000000F010FFAF
:1004B000FFFFFFFFF0F0F0F0F0FFFFFF0000000093
:1004C00000FFFF0F0F0F0F0F3844443844FC4A4A17
:1004D0004A347E02020606027E027E0263554941CC
:1004E000633844443C04407E201E2006027E020203
:1004F00099A5E7A5991C2A492A1C4C7201724C3017
:100500004A4D4D303048784830BC625A463D3E49ED
:100510004949007E0101017E2A2A2A2A2A44445F91
:10052000444440514A444040444A51400000FF0185
:1005300003E080FF000008086B6B08361236243693
:10054000060F090F060000181800000010100030F8
:1005500040FF0101001F01011E00191D1712003C80
:100560003C3C3C0000000000000103070F1F3F7FE0
:100570000080C0E0F0F8FCFE00000008000201006E
:10058000000304070000000000000000DB40A4A6F8
:100590002EAF2000A1C8D300408DAED580A80000AA
:1005A000600000000000000000000000000000E00B
:1005B0000000000000000000000000000001E0005A
:1005C00000000000000000000000000001F000003A
:1005D000000000000000000000000003F000000028
:1005E0000000000000000000000007F00000000014
:1005F00000000000000000000007F80000000000FC
:1006000000000000000000000FF800000003C00020
:100610007E000001E0007F0FF800000003C000FE34
:10062000000001E000FFEFF800000003C000FE0042
:100630000001E000FFFFF800000003C000F0000030
:10064000000F007FFE7FC0000003C000F00000002C
:100650000F003FFE7FF83FF1FBCFFCFEF3BC3DEF08
:10066000E01FFE7FFF7FFBFFDFFEFEFFBC3DEFE0F4
:100670001FC6FFFF7FFBFFDFFEFEFFBC3DEFE00F6D
:10068000E3C7FE787BC3DE1EF0FFBC3DEF0007FF33
:1006900087FC787BC3DE1EF0F83C3DEF0001FFFFD6
:1006A000F0007BC3C01EF0F03C3DEF0001F37FE0A3
:1006B0003FFBC3CFFEF0F03C3DEF0003E33F807F04
:1006C000FBC3DFFEF0F03C3DEF0007E73C00787B2A
:1006D000C3DE1EF0F03C3DEF0007FFBE00787BC399
:1006E000DE1EF0F03C3DEF0007FFFE00787BC3DE2E
:1006F0001EF0F03C3DEF000FFFFE007FFBFFDFFE32
:10070000F0F03FFDEFE00FFFFF007FFBFFDFFEF0AB
:10071000F03FFDEFE00FF9FF003E79F9CF9EF0F0DA
:100720001F3DE7E01FF1FF00000000000000000097
:100730000000001F80FF007FFFFFFFFFFFFFFFFFA4
:10074000FFE01C007F007FFFFFFFFEB46D888D1867
:10075000E000001F007FFFFFFFFE95AD7DB577E055
:1007600000000F007FFFFFFFFEA5AD9D8D19E0008B
:100770000006007FFFFFFFFEB5ADEDB57EE0000097
:100780000000000180000000000000000000038065
:1007900000000000000000000007C0000000000092
:1007A0000000000007C00000000000000000000F73
:1007B000C00000000000000000001FE0000000007A
:1007C00000000000001FE00000000000000000002A
:1007D0003FE00000000000000000003FF0000000CB
:1007E0000000000000007FF0000000000000001F7B
:1007F000F87FF0000000000000003FFE7FF00000E6
:1008000000000000003FFF7FF0000000000000003B
:100810001FFFFBE0000000000000000FFFF9FFC019
:100820000000000000000FFFF9FFF80000000000CA
:100830000007FFF1FFFF00000000000003FC73FF52
:10084000FF80000000000001FE3FFFFF800000006D
:10085000000000FF1E0FFF000000000000007FFEF0
:100860001FFC000000000000003FFFFFF800000038
:10087000000000000FDFFFE0000000000000001F8C
:1008800019FFC0000000000000003F3CFF00000016
:1008900000000000007E7CF8000000000000000066
:1008A0007FFE7C0000000000000000FFFFFC000055
:1008B000000000000000FFFFFE000000000000003C
:1008C00000FFFFFE0000000000000001FFEFFE003F
:1008D00000000000000001FFCFFE0000000000004B
:1008E0000003FF07FE0000000000000003FC07FEFD
:1008F0000000000000000003F003FE000000000004
:100900000000018000FE0000000000000000000068
:100910007E000000000000000000003E000000001B
:100920000000000000000C00000000000007800034
:10093000FC000003C0000000078001FC000003C0B1
:10094000000000078001FC000003C00000000780D9
:1009500001E00000001E000000078001E000000030
:100960001E007FE3F79FF9FDE7787BDFC0FFF7FF0D
:10097000BFFDFDFF787BDFC0FFF7FFBFFDFDFF7808
:100980007BDFC0F0F787BC3DE1FF787BDE00F0F74E
:1009900087BC3DE1F0787BDE0000F787803DE1E039
:1009A000787BDE007FF7879FFDE1E0787BDE00FF4C
:1009B000F787BFFDE1E0787BDE00F0F787BC3DE123
:1009C000E0787BDE00F0F787BC3DE1E0787BDE007D
:1009D000F0F787BC3DE1E0787BDE00FFF7FFBFFD6D
:1009E000E1E07FFBDFC0FFF7FFBFFDE1E07FFBDF62
:1009F000C07CF3F39F3DE1E03E7BCFC000000000F0
:100A000000000000000000FFFFFFFFFFFFFFFFFFEF
:100A1000FFC0FFFFFFFFFD68DB111A31C0FFFFFFC2
:100A2000FFFD2B5AFB6AEFC0FFFFFFFFFD4B5B3B57
:100A30001A33C0FFFFFFFFFD6B5BDB6AFDC02200C6
:100A4000FF210000000000250028002B000000000E
:100A500000240027002A00040404040404040402FF
:100A6000020202020203030303030301020408104B
:100A70002040800102040810200102040810200018
:100A8000BC123F1711241FBECFEFD8E0DEBFCDBF91
:100A900011E0A0E0B1E0E8E1F7E302C005900D92BB
:100AA000AC35B107D9F722E0ACE5B1E001C01D9249
:100AB000AA36B207E1F715E0C1E4D5E004C02197FA
:100AC000FE010E947017C034D107C9F70E941813A5
:100AD0000C947F1B0C94000090E0FC01E559F54F4D
:100AE0002491895A954FFC018491882399F090E0D4
:100AF000880F991FFC01E35BF54FA591B491FC01B0
:100B0000ED5BF54F859194918FB7F894EC91E22BC2
:100B1000EC938FBF0895089508950895AF92BF9202
:100B2000CF92DF92EF92FF920F931F93CF93DF93B9
:100B30006C017B018B01040F151FEB015E01AE18E8
:100B4000BF08C017D10759F06991D601ED91FC910A
:100B50000190F081E02DC6010995892B79F7C50137
:100B6000DF91CF911F910F91FF90EF90DF90CF9089
:100B7000BF90AF90089590E0FC01E858FA4F24919F
:100B8000FC01E559F54F3491FC01E95AF54FE49128
:100B9000EE23C9F0222339F0233001F1A8F42130EB
:100BA00019F1223029F1F0E0EE0FFF1FED5BF54F58
:100BB000A591B4918FB7F894EC91611126C030954E
:100BC0003E233C938FBF08952730A9F02830C9F009
:100BD000243049F7809180008F7D03C08091800090
:100BE0008F7780938000DFCF84B58F7784BDDBCF94
:100BF00084B58F7DFBCF8091B0008F778093B0005C
:100C0000D2CF8091B0008F7DF9CF3E2BDACF3FB7A6
:100C1000F8948091080290910902A0910A02B09183
:100C20000B0226B5A89B05C02F3F19F00196A11D08
:100C3000B11D3FBFBA2FA92F982F8827BC01CD0126
:100C4000620F711D811D911D42E0660F771F881F85
:100C5000991F4A95D1F708958F929F92AF92BF92B4
:100C6000CF92DF92EF92FF924B015C010E94070648
:100C70006B017C010E9407066C197D098E099F0992
:100C8000683E734081059105A8F321E0821A91081E
:100C9000A108B10888EEC80E83E0D81EE11CF11C43
:100CA00081149104A104B10429F7FF90EF90DF9023
:100CB000CF90BF90AF909F908F900895EF92FF924A
:100CC0000F931F93CF93DF93EC01EC80FD806E15A3
:100CD0007F050CF070C057FF04C0240F351F50E093
:100CE00040E08E819F81FA01E20FF31F8E179F076C
:100CF0001CF49C01241B350B121613060CF05BC070
:100D0000922F842F8695869586958E9DD0018F9DF6
:100D1000B00D11246A0F7B1FAF8DB8A1A60FB71FAE
:100D2000477049F188E0841B482F682F70E0FB0171
:100D3000E059FA4FE491281708F063C0621B71096B
:100D40002FEF30E002C0359527956A95E2F7E22350
:100D50000130110539F0B0F10230110561F58C91C7
:100D6000E82702C08C91E82BEC93941720F12C819A
:100D70003D81A20FB31FE92FE41BE83078F0023069
:100D8000110521F58E2F9C9190959C932C813D818E
:100D9000A20FB31F88508830B0F7E770EE2359F0E8
:100DA000F0E0E859FA4FE49101301105F9F010F143
:100DB0000230110519F1DF91CF911F910F91FF9032
:100DC000EF900895E0958C91E823CECF81E0011556
:100DD000110509F480E081959E2F8C932C813D8133
:100DE000A20FB31F98509830C0F7D7CF8C91E82B43
:100DF000EC93E1CFE0958C91E823FACF8C91E82732
:100E0000F7CF0130110509F4ADCFE0F20230110542
:100E100009F4A5CFAE0DBF1DAECF0F931F93CF9397
:100E2000DF9377FF04C0260F371F70E060E0DC011E
:100E30001496CD91DC91FB01E20FF31FCE17DF0773
:100E40001CF49E01261B370B121613064CF5FA01F3
:100E500057FD3796A3E0F595E795AA95E1F7EC9F46
:100E6000D001ED9FB00DFC9FB00D11246A0F7B1FC8
:100E7000DC015F96ED91FC91E60FF71F4770552757
:100E800081E090E001C0880F4A95EAF7482F0130D1
:100E9000110559F0A8F02E0F3F1F02301105E1F0A7
:100EA000DF91CF911F910F9108952E0F3F1FE217F1
:100EB000F307B1F38191DF011197842B8C93F7CF66
:100EC00080952E0F3F1FE217F30751F39191DF0139
:100ED000119798239C93F7CFE217F30709F38191B9
:100EE000DF01119784278C93F7CF0F931F93FA019B
:100EF000DC0156964C9156974230E9F04330A1F10F
:100F0000413061F514964D915C91DA01AE1BBF0B37
:100F1000FD01E21BF30B77FD0BC0DC0116964D9132
:100F20005C916417750724F4AB01BF010E940D07A3
:100F30001F910F91089514964D915C91DA01A61BB3
:100F4000B70BBD0161507109DC0116964D915C91A2
:100F5000DA01AE1BBF0BFD01E21BF30B77FDE8CFFF
:100F6000AF010E945E06E4CF16964D915C91DA01C6
:100F7000A61BB70BBD0161507109CDCF0F931F9315
:100F8000FA01DC0156964C9156974230A9F0433055
:100F900091F1413019F514964D915C91DA01AE1B37
:100FA000BF0BFD013197F7FD04C0AB01BF010E94EB
:100FB0005E061F910F91089514964D915C91DA0190
:100FC000A61BB70BBD01DC0116964D915C91DA01B1
:100FD000AE1BBF0BFD013197621B730BF7FDE9CF11
:100FE000DC0116964D915C91E417F50714F7AF01FB
:100FF0000E940D07DECF16964D915C91DA01A61B7B
:10100000B70BBD01621B730BCECFFC0177FD64C033
:1010100080859185681779070CF05EC057FD5CC02C
:1010200082859385481759070CF056C0868982300F
:10103000B1F0833029F1813041F484819581841BA2
:10104000950BAB01BC01615071092130310509F1EB
:1010500008F443C02230310509F463C00895848147
:101060009581DC01A61BB70BBD016150710986811A
:101070009781DC01A41BB50BAD0141505109E5CFAF
:1010800086819781861B970BBA01AC0141505109AB
:10109000DCCFCA0157FD0796A3E095958795AA95E1
:1010A000E1F7A481B5818A9F90018B9F300D9A9FB3
:1010B000300D1124620F731F078CF0A1E02DE60F95
:1010C000F71F4770552721E030E001C0220F4A95F5
:1010D000EAF78081822B80830895CA0157FD079625
:1010E00033E0959587953A95E1F7A481B5818A9F7C
:1010F00090018B9F300D9A9F300D1124620F731F4A
:10110000078CF0A1E02DE60FF71F4770552781E00F
:1011100090E001C0880F4A95EAF780959081892375
:10112000DACFCA0157FD079623E0959587952A9552
:10113000E1F7A481B5818A9F90018B9F300D9A9F22
:10114000300D1124620F731F078CF0A1E02DE60F04
:10115000F71F4770552721E030E001C0220F4A9564
:10116000EAF780818227B7CF08958EBD00000DB4C5
:1011700007FEFDCF8EB508958CBD9DBD08950895E1
:10118000FC016370668B8481958126813781613093
:1011900039F0633029F0918780873387228708955B
:1011A000318720879387828708952F923F924F92AD
:1011B0005F926F927F928F929F92AF92BF92CF92E7
:1011C000DF92EF92FF920F931F93CF93DF93CDB7F0
:1011D000DEB76A970FB6F894DEBF0FBECDBF9A8F09
:1011E000898F7A8369834A01D22E18870F8337014A
:1011F000BC2CDC0159962D913C915A972115310553
:1012000009F015C118968D919C9119976817790767
:101210000CF0D7C11A968D919C91481759070CF084
:10122000D0C14C2C512CB6E0CB9E600D711D112409
:101230007C876B87161617060CF0C3C1EA2DF0E009
:10124000FA87E98793E0EE0FFF1F9A95E1F7F88B95
:10125000EF87CF01840F951F181619060CF0B1C146
:10126000A98DBA8D58968C91811104C0BFEABD1525
:1012700008F4D394A98DBA8DED91FC911197028455
:10128000F385E02DCD010995B5E0DB9EC001112469
:10129000E981FA81FC83EB83312C212C9C012859B4
:1012A0003F4F388F2F8B4A2D50E05E8B4D8BEF894F
:1012B000F88DE20DF31D44919E828D82D12CC12CBC
:1012C00069817A81620D731D7A8B698B842F90E01E
:1012D0009C8B8B8BE98DFA8DA081B18140FF82C000
:1012E000F1E0BF126FC0AF126DC01C96ED91FC9182
:1012F0002F813885A4014C0D5D1D69897A89898DFE
:101300009A8D0995EB89FC89F595E7954E2F5FEF4E
:10131000C51AD50A6D817E818D899E89680F791FD6
:101320007E836D8398E0C916D10481F6AFEF2A1A47
:101330003A0AEB81FC81E40DF51DFC83EB83F5E0BB
:101340002F16310409F0B3CF2F81388526153705C4
:10135000B9F0A98DBA8DED91FC91B1E0BB1257C0E7
:10136000AB1255C069817A816B5F7F4F0088F1892C
:10137000E02D830128E030E0A401898D9A8D099544
:10138000A98DBA8DED91FC9111970688F789E02D12
:10139000CD016A960FB6F894DEBF0FBECDBFDF91C8
:1013A000CF911F910F91FF90EF90DF90CF90BF9062
:1013B000AF909F908F907F906F905F904F903F90F5
:1013C0002F9009941E96ED91FC91EF80F884098589
:1013D0001A8592014D815E816B817C81898D9A8D08
:1013E000099590CF2F8138852615370509F48ACFC6
:1013F00031E0B31207C0A31205C01C96ED91FC9119
:10140000930178CF1E96ED91FC917301E0CF6B852F
:101410007C85641975090684F785E02D73010F85B5
:1014200018899201A401898D9A8D0995A9CFF90196
:1014300034969491329745915491D91AB7E0DB9E36
:10144000400D511D1124F901259134913C8B2B8BBA
:10145000FA0125903490FA013296749031963491C5
:10146000398B329664903196449041E04C1518F0D7
:101470004A1508F07FC0662D062C000C770B7C8384
:101480006B83842D042C000C990B9E838D83A98D76
:10149000BA8DED91FC9111970284F385E02DCD0179
:1014A0000995512CD12CC12CEA2DF0E0FA87E9875F
:1014B0002B2D30E03C872B87A401440D511D47FCA8
:1014C0005A95588F4F8B69817A81660D711D67FC23
:1014D0007A957E876D877989C71608F051CF2C2DB4
:1014E00030E04D815E81420F531FA985BA854A9F26
:1014F000C0014B9F900D5A9F900D1124FC01E80DE7
:10150000F91DF88BEF87852D612C4F89588D420F7F
:10151000531F5E8B4D8B671408F050C044244394D6
:10152000480E877041F4C1010196EB89FC89E20DF8
:10153000F31DD4901C01D7FE19C0A98DBA8DED9171
:10154000FC91662D70E0B1E0BB1219C0AB1217C060
:101550002D853E85620F731F0484F585E02D2F8154
:1015600038854D895E89898D9A8D0995DD0C639446
:10157000842DD1CF1E821D821C821B8288CF4B817D
:101580005C81640F751FAB85BC856A9FC0016B9F32
:10159000900D7A9F900D112469817A81680F791FCF
:1015A0000684F785E02DEF80F88409851A859D0172
:1015B0004F855889898D9A8D0995D8CF570CC3943A
:1015C0008ACF6A960FB6F894DEBF0FBECDBFDF910B
:1015D000CF911F910F91FF90EF90DF90CF90BF9030
:1015E000AF909F908F907F906F905F904F903F90C3
:1015F0002F9008958F929F92AF92CF92EF92FF9289
:101600000F931F93CF93DF93EC01262F898D9A8D33
:10161000009709F051C06A30D1F41D861C868D896F
:1016200048E0849F900111248E859F85820F931F2F
:101630009F878E8781E090E0DF91CF911F910F917E
:10164000FF90EF90CF90AF909F908F9008956D3066
:1016500089F3CC88AD888F898823C1F08C859D85DE
:1016600036E0C39E800D911D112448855985481789
:10167000590764F44E855F851D861C8638E0A39E5D
:10168000C0011124840F951F9F878E87EA88FB88ED
:10169000088919894E855F856C857D85CE010E94FC
:1016A000D5082C898C859D8546E0249F800D911D51
:1016B00011249D878C87BECF6A3069F41D861C86F5
:1016C000FC013696E4912D898E859F85E29F800DE1
:1016D000911D1124ADCF6D3009F4ACCFFC013496CF
:1016E0003491631708F4A6CF3196E491E61708F415
:1016F000A1CFFC01329685909490462F431B342F46
:1017000047E0349F800C911C1124F40132963491EF
:101710003196E4913323A9F1EE2399F1CC88F401B9
:101720003596E491AD884F89442301F10E2E000CCB
:10173000FF0BE30FF11DCE9EA001CF9E500D112493
:101740006C857D85460F571F6885798564177507F9
:101750006CF44E855F851D861C86FC013696E491EF
:10176000AE9E400D511D11245F874E87EA88FB888D
:10177000088919894E855F856C857D85CE010E941B
:10178000D508F4013496E4912C898C859D85E29FDF
:10179000800D911D11248DCF6F927F928F929F9219
:1017A000AF92BF92CF92DF92EF92FF920F931F936F
:1017B000CF93DF93EC016B015A0139014801E881B5
:1017C000F9810284F385E02D0995E881F981028889
:1017D000F389E02D87019301A501B601CE0109959A
:1017E000A501480D591D41505109E881F981028830
:1017F000F389E02D9301B601CE010995E881F981C5
:101800000088F189E02D9401A501B601CE0109956A
:10181000C60CD71CB60161507109E881F9810088B6
:10182000F189E02D9401A501CE010995E881F981A6
:101830000688F789E02DCE01DF91CF911F910F919E
:10184000FF90EF90DF90CF90BF90AF909F908F90E0
:101850007F906F9009946F927F928F929F92AF9238
:10186000BF92CF92DF92EF92FF920F931F93CF938D
:10187000DF935C01EB016A01490138018701DC015A
:10188000ED91FC916217730719F5641675062CF03B
:10189000962D872D3A01C92ED82E96012619370983
:1018A0002F5F3F4F048CF58DE02DA301BE01C501D4
:1018B0000995DF91CF911F910F91FF90EF90DF90ED
:1018C000CF90BF90AF909F908F907F906F90089532
:1018D0004615570591F42617370724F0892D4B013B
:1018E000C22FD82F9E01281939092F5F3F4F068C30
:1018F000F78DE02DA601B401DACF0284F385E02D47
:101900000995D501ED91FC910488F589E02D8301BD
:101910009401A601BE01C5010995D501ED91FC9187
:101920000688F789E02DC501DF91CF911F910F91B6
:10193000FF90EF90DF90CF90BF90AF909F908F90EF
:101940007F906F900994EF92FF920F931F93DC01A9
:101950001A960D911C911B9718962D913C911997F1
:10196000ED91FC9100A0F1A1E02D7B0150E040E061
:1019700070E060E009951F910F91FF90EF9008953E
:101980004F925F926F927F928F929F92AF92BF928F
:10199000CF92DF92EF92FF920F931F93CF93DF933B
:1019A0006C012B015A0139014801DC01ED91FC91D8
:1019B0000284F385E02D0995E201640C751CD601C3
:1019C000ED91FC91C615D7055CF40088F189E02DF6
:1019D00087019401A501BE01C60109952196EFCFAB
:1019E0000688F789E02DC601DF91CF911F910F91F5
:1019F000FF90EF90DF90CF90BF90AF909F908F902F
:101A00007F906F905F904F9009948F929F92AF92CA
:101A1000BF92CF92DF92EF92FF920F931F93CF93DB
:101A2000DF93EC015B014A016901E881F9810284DD
:101A3000F385E02D099595012C0D3D1D21503109AF
:101A4000E881F9810488F589E02D78018401A401F9
:101A5000B501CE010995E881F9810688F789E02D65
:101A6000CE01DF91CF911F910F91FF90EF90DF900A
:101A7000CF90BF90AF909F908F9009948F929F923C
:101A8000AF92BF92CF92DF92EF92FF920F931F938C
:101A9000CF93DF93EC015B014A0169017801E88192
:101AA000F9810284F385E02D0995C80CD91C8601C3
:101AB00001501109E881F9810488F589E02D95012B
:101AC000A401B501CE010995E881F9810688F7895D
:101AD000E02DCE01DF91CF911F910F91FF90EF90FC
:101AE000DF90CF90BF90AF909F908F900994EF922E
:101AF000FF920F931F93DC01ED91FC9100A0F1A1E7
:101B0000E02D09951F910F91FF90EF9008950F938D
:101B10001F93DC01ED91FC91068CF78DE02D09956A
:101B20001F910F9108950F931F93DC01ED91FC918C
:101B3000048CF58DE02D09951F910F910895DC011E
:101B4000ED91FC910084F185E02D09943F924F9234
:101B50005F926F927F928F929F92AF92BF92CF923D
:101B6000DF92EF92FF920F931F93CF93DF935C016D
:101B70007B014A016901390187E0680E711C93E01D
:101B8000759467949A95E1F72B01400E511E10E071
:101B900000E0312CD0E0C0E0CE0187709927330CF3
:101BA000892B59F4FE0183E0F595E7958A95E1F7D5
:101BB000E00FF11FE80DF91D349037FE0AC021E057
:101BC00030E0A701B5016C0F7D1F86E292E00E9414
:101BD0009F0D2196CC16DD06F9F68FEFE81AF80A6C
:101BE000060D171DE414F504A9F6DF91CF911F919E
:101BF0000F91FF90EF90DF90CF90BF90AF909F90AC
:101C00008F907F906F905F904F903F9008952F92AC
:101C10003F924F925F926F927F928F929F92AF927C
:101C2000BF92CF92DF92EF92FF920F931F93CF93C9
:101C3000DF9300D000D000D0CDB7DEB73C016A0101
:101C40003E832D83FC82EB825801A41AB50AB7FEAD
:101C500003C0B194A194B1088D809E80861A970A22
:101C600097FE03C09194819491088A149B045CF0C0
:101C7000902F812F0D811E819D838E839C2D8D2D14
:101C80006B01692F782F0C151D055CF09D818E81ED
:101C90007E836D83692F782F902F812F8601C92E27
:101CA000D82E1601201A310A2B012D813E81421AAD
:101CB000530A57FE03C0519441945108710137FEF5
:101CC00003C03FEFE31AF30AF594E7948D819E81F8
:101CD000861797075CF5A1E0B0E0BA83A983C01628
:101CE000D1064CF1D301ED91FC910484F585E02DF2
:101CF0002B813C81A8016D817E818A149B041CF09C
:101D00004D815E81B801C3010995E418F508F7FE1D
:101D10000AC02D813E8189819A81280F391F3E8317
:101D20002D83E20CF31C0F5F1F4FD9CF2FEF3FEF36
:101D30003A832983D4CF26960FB6F894DEBF0FBE20
:101D4000CDBFDF91CF911F910F91FF90EF90DF906A
:101D5000CF90BF90AF909F908F907F906F905F904B
:101D60004F903F902F900895089585ED8093BC008B
:101D70008091BC0084FDFCCF109213020895209145
:101D8000BC01260F3327331F21323105ECF420919B
:101D90001302FC0190E080E0243069F082E00895B5
:101DA000A091BC012191AC0144565E4FA40FB52F08
:101DB000B11D2C930196861798F38091BC01680F92
:101DC0006093BC0180E0089581E00895E0911502E0
:101DD00080911402E81730F4F0E0E458FE4F80815F
:101DE00090E008958FEF9FEF0895909115028091F4
:101DF00014022FEF3FEF981748F4E92FF0E0E45872
:101E0000FE4F208130E09F5F90931502C901089535
:101E10008091140290911502891B990B0895CF921D
:101E2000DF92EF92FF920F931F93CF93DF937C018A
:101E3000CB018A0120911902222389F0EB016B0169
:101E4000C40ED51ECC15DD0569F06991D701ED9161
:101E5000FC910190F081E02DC7010995F3CF642F2B
:101E60000E94BF0EC801DF91CF911F910F91FF908B
:101E7000EF90DF90CF900895CF93DF931F92CDB76F
:101E8000DEB76983209119022223F9F0209116020E
:101E9000203258F021E030E0FC013383228390E0CF
:101EA00080E00F90DF91CF91089580911702E82F85
:101EB000F0E0E45AFE4F998190838F5F8093170280
:101EC0008093160281E090E0ECCF61E0CE010196B4
:101ED0000E94BF0EF7CF2091160281E0213208F058
:101EE00044C0809113028111FCCF8091180292E0CE
:101EF0009093130291E0909312029FEF9093DF0171
:101F00001092010220930002ACE5B1E0E0EEF1E0B6
:101F100090E0291331C01092020290910202880FC2
:101F2000892B8093020280911102813049F5109231
:101F30001102809102028093BB008091BC0083FD5E
:101F4000F8CF85EC8093BC00809113028230E1F3DE
:101F50008091DF018F3FB1F08091DF018032A1F0ED
:101F60008091DF01803391F084E01092170210928B
:101F700016021092190208953D9131939F5FC9CFC7
:101F800085EEE0CF80E0F1CF82E0EFCF83E0EDCFD0
:101F9000FF920F931F93CF93DF93F82ED92FC62F65
:101FA0008091430290914402009709F452C020911D
:101FB000470231E030931902209318021092170261
:101FC00010921602DC01ED91FC910190F081E02D60
:101FD00060E009950F2D1D2FD1E0FF24F394C1502F
:101FE0008091430290914402CF3F61F1D032C8F01A
:101FF0000E946B0F8091430290914402209147020E
:10200000F0921902209318021092170210921602F1
:10201000DC01ED91FC910190F081E02D60E00995EB
:10202000D1E08091430290914402F8016491DC0177
:10203000ED91FC910190F081E02D0995DF5F0F5F3C
:102040001F4FCDCFDF91CF911F910F91FF900C9437
:102050006B0FE0915302F0915402908180915902EC
:102060008095892380830F2D1D2FC15008F438C01F
:10207000F80184912091410230914202232B29F0F2
:102080000E94B5080F5F1F4FF0CF28E030E040E816
:10209000E0914F02F091500290915702582F542333
:1020A000D9F05081952B9083E0915102F09152022A
:1020B000908150915802952B9083E0915102F091BC
:1020C00052025081909158029095952390834695A5
:1020D00021503109E9F6D6CF508190959523E3CF71
:1020E000DF91CF911F910F91FF9008951F93CF9390
:1020F000DF93EC018D8D9E8D009721F1162F29A184
:1021000031E03093190220931802109217021092B6
:102110001602DC01ED91FC910190F081E02D60E070
:1021200009958D8D9E8DDC01ED91FC910190F081E2
:10213000E02D612F09958D8D9E8DDF91CF911F919F
:102140000C946B0FADA5BEA59C918BA9809589239E
:102150008C938B8D9C8D892B31F0862FDF91CF91C5
:102160001F910C94B50828E030E080E8A9A5BAA535
:1021700099A9462F4823C1F04C91942B9C93ABA571
:10218000BCA59C914AA9942B9C93ABA5BCA54C9152
:102190009AA9909594239C9386952150310931F703
:1021A000DF91CF911F9108954C9190959423E6CFA4
:1021B0001F93CF93DF93EC01162F8D8D9E8D892B6E
:1021C000B1F12DA93EA94FA958AD60E074E284EFAA
:1021D00090E00E944E17205131094109510956954E
:1021E0004795379527952093B80066EA111167EA5D
:1021F000CE010E9476108D8D9E8D892B41F129ADE7
:102200003AAD4BAD5CAD60E074E284EF90E00E94CB
:102210004E17205131094109510956954795379577
:1022200027952093B800DF91CF911F9108958B8D52
:102230009C8D892B21F08EAD9FAD0E94BC08EFA52F
:10224000F8A990818CA9809589238083CECFEFA5B2
:10225000F8A980819CA9892B8083E5CF90E080E05C
:10226000089520912C0230912D02C901079697FD07
:10227000079623E0959587952A95E1F720912A0204
:1022800030912B02829FA001839F500D929F500D91
:10229000112470E060E080914502909146020C9418
:1022A000A0180E949B181F920F920FB60F92112434
:1022B0002F933F938F939F93AF93BF93809104028B
:1022C00090910502A0910602B0910702309103029D
:1022D00023E0230F2D3758F50196A11DB11D209342
:1022E00003028093040290930502A0930602B09328
:1022F00007028091080290910902A0910A02B09110
:102300000B020196A11DB11D809308029093090252
:10231000A0930A02B0930B02BF91AF919F918F914E
:102320003F912F910F900FBE0F901F90189526E8A8
:10233000230F0296A11DB11DD2CF1F920F920FB68F
:102340000F9211242F933F934F935F936F937F933B
:102350008F939F93AF93BF93EF93FF938091B900B7
:10236000887F803609F44AC0F0F5883209F4A7C0A6
:1023700018F5803109F49BC0B8F4882309F4F9C03A
:10238000883009F494C0FF91EF91BF91AF919F9174
:102390008F917F916F915F914F913F912F910F900E
:1023A0000FBE0F901F901895883109F488C08032B5
:1023B00051F78093DF0114C0803409F49DC040F4CC
:1023C0008033B9F38833F9F68093DF0185ECB0C030
:1023D000803509F485C0883509F496C0883499F6AB
:1023E0000E94B50ED0CF883909F48CC038F58837F3
:1023F00029F050F4883611F0803729F683E0809375
:1024000013021092DE0157C0883809F47BC080396E
:1024100019F0803809F0B7CF8091DE01803208F0E2
:1024200071C0E091DE0181E08E0F8093DE0180912A
:10243000BB00F0E0E254FE4F80833DC0803B39F0AA
:10244000E0F4803A09F479C0883A09F09CCF84E03E
:10245000809313021092BD011092BC01E0910F0213
:10246000F091100209958091BC0181110FC081E0AB
:102470008093BC0110929C0109C0803C09F4A6CF56
:10248000883C09F4A3CF883B09F07DCFE091BD01E2
:1024900081E08E0F8093BD01F0E0E456FE4F808115
:1024A0008093BB009091BD018091BC0129C08091B7
:1024B00002028093BB0085EC8093BC0064CF9091B6
:1024C000010280910002981758F5E091010281E025
:1024D0008E0F80930102F0E0E052FE4F8081E9CF41
:1024E000E091010281E08E0F809301028091BB0098
:1024F000F0E0E052FE4F8083909101028091000253
:102500009817C8F285E8D8CFE091010281E08E0FDC
:10251000809301028091BB00F0E0E052FE4F808387
:102520008091120281115CCF81E08093110284EAD4
:102530008093BC001092130226CF85EC8093BC00E0
:10254000109213028091DE01803230F4E091DE01BE
:10255000F0E0E254FE4F10826091DE0170E0E09105
:102560000D02F0910E028EEB91E009951092DE01C2
:102570000ACF1092DF0134CFAAE1B2E013961C9289
:102580001E92129748EE53E060E070E014964D936F
:102590005D936D937C9317978AE091E011969C93DD
:1025A0008E93E6E2F2E01382128220E830E0358377
:1025B000248380E290E09783868331872087938706
:1025C0008287168A158614861786168681E0858B83
:1025D000848B2FEF3FEF338B228B318B208B878BBC
:1025E000108E128E118E8CE191E091838083148E77
:1025F000138EB68FA58F10A2178E8FEF84A385A39D
:1026000086A387A384E080A780E89AE1A6E0B0E0F3
:1026100085AB96ABA7ABB0AF80EA96E8A1E0B0E09F
:1026200081AF92AFA3AFB4AF80E586AF17AE089588
:10263000CF93DF93CDB7DEB760970FB6F894DEBFC8
:102640000FBECDBF789484B5826084BD84B58160AF
:1026500084BD85B5826085BD85B5816085BD80916D
:102660006E00816080936E001092810080918100E5
:1026700082608093810080918100816080938100DD
:10268000809180008160809380008091B10084609F
:102690008093B1008091B00081608093B000809100
:1026A0007A00846080937A0080917A0082608093BF
:1026B0007A0080917A00816080937A0080917A001C
:1026C000806880937A001092C100809145029091B9
:1026D0004602892B11F10E94311120912C02309178
:1026E0002D0280912A0290912B02213231050CF0AB
:1026F00032C1B9016052710977FF02C06F5F7F4F2D
:10270000759567958357910997FD019600E210E052
:1027100023E730E04EE955E031C120912C023091A1
:102720002D02C901079697FD0796B3E09595879509
:10273000BA95E1F720912A0230912B02AC01429F19
:10274000C001439F900D529F900D11240E94761757
:102750009093460280934502892B09F0BCCF0E94DA
:10276000311166246394712CCE0101967C01812C79
:10277000E4E29E2EE4EFAE2EB12CF0E04F2EF0E01E
:102780005F2E222423940E94311192E090933A020A
:1027900090933B0270923902609238027092370235
:1027A0006092360210923302109232021092350279
:1027B000109234021F92AAE4AF931F92B5E1BF9327
:1027C000E4E4F1E0FF93EF93FF92EF920E94A718E9
:1027D000F70101900020E9F73197AF014E195F0929
:1027E000B70186E292E00E948E05109233021092A9
:1027F000320242E150E0509335024093340248E007
:1028000050E060E571E086E292E00E948E0542E0D1
:1028100050E069E571E086E292E00E948E050FB615
:10282000F894DEBF0FBECDBF809143029091440269
:10283000892B09F49AC220915B0230915C0240918D
:102840005D0250915E02C501B4010E944E172051F5
:102850003109410951095695479537952795209398
:10286000B80065E08EE39AE00E94C80F60912A02EA
:10287000615086E292E00E94761020912C02309105
:102880002D02C901079697FD079623E09595879538
:102890002A95E1F720912A0230912B02829F600154
:1028A000839FD00C929FD00C11240091450210916F
:1028B00046028091430290914402C00ED11E0097BF
:1028C00009F490C220914702209219022093180225
:1028D0001092170210921602DC01ED91FC9101900A
:1028E000F081E02D60E40995332433948091430214
:1028F00090914402C016D10609F44EC2BFE1B3154F
:10290000D0F40E946B0F8091430290914402209179
:102910004702209219022093180210921702109277
:102920001602DC01ED91FC910190F081E02D60E454
:102930000995332433948091430290914402F80125
:1029400061918F01DC01ED91FC910190F081E02D0E
:1029500009953394CBCFB9016054710977FF02C058
:102960006F5F7F4F759567958255910997FD019629
:1029700000E410E022E530E04EE757E095958795BA
:102980000E94A60D82E080934802809143029091BC
:102990004402892B09F4FBC08CE380934702109218
:1029A0001502109214021092170210921602109241
:1029B000130281E0809312021092110261E082E121
:1029C0000E94BB0561E083E10E94BB058091B900D4
:1029D0008E7F8093B9008091B9008D7F8093B9007C
:1029E00088E48093B80085E48093BC008CE895E08F
:1029F0009093100280930F028DE895E090930E0261
:102A000080930D0280914E0287FD1DC00E946C05CF
:102A100061E080914E020E94BB0561E070E080E0C1
:102A200090E00E942C0660E080914E020E94BB055F
:102A30006AE070E080E090E00E942C0661E0809106
:102A40004E020E94BB058091430290914402892B63
:102A500009F454C120915B0230915C0240915D0207
:102A600050915E0260E074E284EF90E00E944E17A5
:102A700020513109410951095695479537952795B8
:102A80002093B80064E08AE995E00E94C80F609145
:102A90002C02615086E292E00E94761064E086E9A2
:102AA00095E00E94C80F8091480260E1813009F0F2
:102AB00064E186E292E00E94761064E082E995E0AB
:102AC0000E94C80F8FE88093630280912A02909140
:102AD0002B028038910509F02AC180912C02909137
:102AE0002D028034910509F032C180914802813075
:102AF00009F01BC18FE98093630212E16AED86E25F
:102B000092E00E947610612F86E292E00E94761099
:102B100061E886E292E00E9476106091630286E2AC
:102B200092E00E94761069ED86E292E00E947610B3
:102B30008091480262E2813009F061EF86E292E022
:102B40000E94761066E08CE895E00E94C80F8091A4
:102B5000430290914402892B09F4FDC020915F0249
:102B600030916002409161025091620260E074E233
:102B700084EF90E00E944E1720513109410951091C
:102B800056954795379527952093B800E8CD8091C5
:102B90004C020E946C0580914D020E946C05809150
:102BA0004C02082E000C990BFC01E95AF54FE491F8
:102BB000F0E0EE0FFF1FED5BF54F25913491309360
:102BC000540220935302FC01E559F54FE491E09340
:102BD000590280914D02082E000C990BFC01E95A14
:102BE000F54FE491F0E0EE0FFF1FED5BF54FA5917F
:102BF000B491B0935602A0935502FC01E559F54FEC
:102C0000E491E0935A028C91E82BEC93809141027D
:102C100090914202892B89F11FB7F89480910C02A0
:102C2000811124C0E1E6FAE08491E5E7FAE09491AD
:102C3000E82FF0E0EE0FFF1FE35BF54FA591B49195
:102C4000EC91E92321F461E08AE00E94BB058AE06F
:102C50000E946C058CB580618CBD8CB580648CBD88
:102C60008DE00E946C058BE00E946C0580910C0247
:102C70008F5F80930C021FBFC5CE80914A020E94D5
:102C80006C0580914B020E946C0580914A02082ECF
:102C9000000C990BFC01E95AF54FE491F0E0EE0FBE
:102CA000FF1FED5BF54F2591349130935002209337
:102CB0004F02FC01E559F54FE491E09357028091F2
:102CC0004B02082E000C990BFC01E95AF54FE491D8
:102CD000F0E0EE0FFF1FED5BF54FA591B491B093BF
:102CE0005202A0935102FC01E559F54FE491E093A3
:102CF00058028C91E095E823EC9384CE80914102B8
:102D000090914202892B31F080916402909165028A
:102D10000E94BC08E0915502F0915602908180918A
:102D20005A02809589238083ADCE8FECE4CE803625
:102D3000910569F480912C0290912D02409739F40D
:102D400080914802813029F480E18093630212E08F
:102D5000D5CE8FEAFACFE0915502F09156028081EC
:102D600090915A02892B8083FACC809141029091F4
:102D70004202892B31F080916402909165020E9499
:102D8000BC08E0915502F0915602908180915A0260
:102D900080958923808365CD0E946B0F80914302CB
:102DA00090914402892B09F460C020915F02309118
:102DB00060024091610250916202C501B4010E941B
:102DC0004E172051310941095109569547953795BC
:102DD00027952093B8004114510409F4D4CC0E94E3
:102DE0000000D1CCE0915302F09154028081909187
:102DF0005902892B80830C151D0581F2F801819100
:102E00008F012091410230914202232B19F00E9440
:102E1000B508F1CF28E030E040E8E0914F02F091B2
:102E2000500290915702582F5423D9F05081952B7E
:102E30009083E0915102F09152029081509158029A
:102E4000952B9083E0915102F09152025081909124
:102E50005802909595239083469521503109E9F6C3
:102E6000CACF508190959523E3CFE0915502F09120
:102E70005602808190915A02892B8083ACCF8CE1DD
:102E800091E09093270280932602809145029091D1
:102E90004602009711F00C9412180895A1E21A2E20
:102EA000AA1BBB1BFD010DC0AA1FBB1FEE1FFF1FEE
:102EB000A217B307E407F50720F0A21BB30BE40B3E
:102EC000F50B661F771F881F991F1A9469F7609585
:102ED0007095809590959B01AC01BD01CF0108953F
:102EE000EE0FFF1F0590F491E02D09940F931F93AF
:102EF000CF93DF938230910510F482E090E0E0916F
:102F00006802F091690230E020E0B0E0A0E0309784
:102F100099F42115310509F44AC0281B390B2430D6
:102F20003105D8F58A819B816115710589F1FB0115
:102F300093838283FE0111C04081518102811381FC
:102F400048175907E0F04817590799F4109761F0AE
:102F500012960C93129713961C933296CF01DF9121
:102F6000CF911F910F910895009368021093690209
:102F7000F4CF2115310551F04217530738F0A9015C
:102F8000DB019A01BD01DF01F801C1CFEF01F9CFEB
:102F90009093690280936802CDCFFE01E20FF31F88
:102FA000819391932250310939832883D7CF20917F
:102FB000660230916702232B41F420910201309187
:102FC0000301309367022093660220910001309143
:102FD00001012115310541F42DB73EB7409104019F
:102FE00050910501241B350BE0916602F0916702B8
:102FF000E217F307A0F42E1B3F0B2817390778F0D0
:10300000AC014E5F5F4F2417350748F04E0F5F1F2E
:103010005093670240936602819391939FCFF0E0B3
:10302000E0E09CCFCF93DF930097E9F0FC0132976B
:1030300013821282A0916802B0916902ED0130E022
:1030400020E01097A1F420813181820F931F2091FD
:103050006602309167022817390709F061C0F093C2
:103060006702E0936602DF91CF910895EA01CE17DF
:10307000DF07E8F54A815B819E0141155105B1F7F3
:10308000E901FB83EA8349915991C40FD51FEC17DD
:10309000FD0761F4808191810296840F951FE901FB
:1030A00099838883828193819B838A83F0E0E0E027
:1030B00012968D919C9113970097B9F52D913C91A3
:1030C0001197CD010296820F931F209166023091D5
:1030D00067022817390739F6309751F510926902BF
:1030E00010926802B0936702A0936602BCCFD383AC
:1030F000C28340815181840F951FC817D90761F49D
:103100004E5F5F4F88819981480F591F51834083DB
:103110008A819B81938382832115310509F0B0CF89
:10312000F0936902E09368029ECFFD01DC01C0CFFD
:1031300013821282D7CF81E090E0F8940C947F1B29
:10314000DC0101C06D9341505040E0F70895AEE0BE
:10315000B0E0EDEAF8E10C94561B0D891E8986E07B
:103160008C831A8309838FEF9FE79E838D83AE0143
:10317000475E5F4F6F89788DCE0101960E94CA1815
:103180002F813885020F131FF80110822E96E4E07C
:103190000C94721BABE0B0E0E0EDF8E10C94481B3E
:1031A0007C013B018A01FC0117821682838181FF29
:1031B000C8C1CE0101965C01F7019381F30193FD33
:1031C000859193FF81913F01882309F453C1853292
:1031D00039F493FD859193FF81913F01853229F464
:1031E000B70190E00E94BA1AE7CF912C212C312C24
:1031F000FFE1F31538F08B3211F190F4803209F1D0
:10320000833229F137FC3CC020ED280F2A3050F5DD
:1032100036FE20C08AE0989E200D1124922E06C012
:103220008D3291F0803371F7689430F8F30193FD9B
:10323000859193FF81913F018111DACF21C068947C
:1032400031F8689432F8F2CF689433F8EFCF68948D
:1032500034F8ECCFEAE02E9E200D1124222E689443
:1032600035F8E4CF8E3229F436FC04C1689436F880
:10327000DDCF8C3619F4689437F8D8CF8836B1F2A0
:10328000982F9F7D95549330E0F08336A1F18337DA
:10329000C1F1833509F063C02801F2E04F0E511CE3
:1032A000F801C080D180692D70E036FC02C06FEF5C
:1032B0007FEFC6010E94A41A4C01689437F882017E
:1032C0000AC00C5F1F4FFFE3F98388248394912C7D
:1032D0006501E89437F833FE2DC0522C8114910417
:1032E00071F5552009F468CFB70180E290E00E94A3
:1032F000BA1A5A94F6CFF801808189830E5F1F4F66
:10330000E4CF2801F2E04F0E511CF801C080D180BB
:10331000692D70E036FC02C06FEF7FEFC6010E949E
:10332000AF1A4C018201D5CFB70180E290E00E9434
:10333000BA1A2A942814190409F0B0F7CECFF6016E
:1033400037FC859137FE81916F01B70190E00E94B3
:10335000BA1A51105A94F1E08F1A9108BFCF8436EF
:1033600019F0893609F077C0F80137FE6BC060812B
:103370007181828193810C5F1F4FF32DFF763F2E69
:1033800097FF09C090958095709561957F4F8F4FFD
:103390009F4F689437F82AE030E0A5010E94EA1AAE
:1033A000C82ECA188C2C432C36FE0CC0E89440F86A
:1033B000C91440F434FE05C032FC03C0F32DFE7E78
:1033C0004F2E892C44FE95C0FE01EC0DF11D80812D
:1033D000803309F087C0242D297E422E842D8870E9
:1033E000582E43FC95C040FE8FC09C2C821418F4CC
:1033F0002C0C922C981844FE91C0B70180E390E009
:103400000E94BA1A42FE09C088E790E041FE02C05D
:1034100088E590E0B7010E94BA1AC91408F48AC07E
:10342000CA94D12C9FEFC91AD90ACA0CDB1CF60129
:1034300082916F01B70190E00E94BA1AAC14BD04EA
:10344000B1F74FCF60817181072E000C880B990B6B
:103450000E5F1F4F92CFD32CE894D4F82AE030E0CF
:10346000853739F1232D297FD22E8F3601F148F48B
:103470008835A9F0F701868197812B96E2E10C94BB
:10348000641B803749F08837A9F7D4FE02C06894DE
:10349000D2F820E130E00DC06894D4F8F6CF34FEC5
:1034A00003C0822F8660D82E20E132E002C028E0DF
:1034B00030E0F801D7FE0FC0608171818281938175
:1034C0000C5F1F4FA5010E94EA1AC82ECA183D2C96
:1034D000E89437F867CF6081718190E080E00E5FFB
:1034E0001F4FF0CF42FC02C0839478CF8394839423
:1034F00075CF842D867809F471CFF6CFB70180E2BD
:1035000090E00E94BA1A83948214C0F3512C73CFB6
:10351000522C5818821408F46ECFF8CF842D867878
:1035200009F47BCF8BE241FE80E247FC8DE2B701DC
:1035300090E071CFB70180E390E00E94BA1A9A94AC
:103540006CCF8FEF9FEF99CFFC01059061507040D9
:103550000110D8F7809590958E0F9F1F0895FC015C
:103560006150704001900110D8F7809590958E0FB2
:103570009F1F08950F931F93CF93DF93182F092F49
:10358000EB018B8181FD09C01FEF0FEF812F902F81
:10359000DF91CF911F910F91089582FF14C02E816A
:1035A0003F818C819D81281739073CF4E881F9819E
:1035B000CF0101969983888310838E819F81019624
:1035C0009F838E83E3CFE885F985812F0995892B29
:1035D000A1F3DACFFA01AA27283051F1203181F185
:1035E000E8946F936E7F6E5F7F4F8F4F9F4FAF4F0B
:1035F000B1E03ED0B4E03CD0670F781F891F9A1F1E
:10360000A11D680F791F8A1F911DA11D6A0F711DD1
:10361000811D911DA11D20D009F468943F912AE0DD
:10362000269F11243019305D3193DEF6CF010895C5
:10363000462F4770405D4193B3E00FD0C9F7F6CFF6
:10364000462F4F70405D4A3318F0495D31FD4052BE
:10365000419302D0A9F7EACFB4E0A6959795879554
:1036600077956795BA95C9F7009761057105089533
:103670009B01AC010A2E06945795479537952795DF
:10368000BA95C9F7620F731F841F951FA01D089577
:103690002F923F924F925F926F927F928F929F9262
:1036A000AF92BF92CF92DF92EF92FF920F931F9350
:1036B000CF93DF93CDB7DEB7CA1BDB0B0FB6F89401
:1036C000DEBF0FBECDBF09942A88398848885F8441
:1036D0006E847D848C849B84AA84B984C884DF80B2
:1036E000EE80FD800C811B81AA81B981CE0FD11D96
:1036F0000FB6F894DEBF0FBECDBFED01089515E003
:10370000C1E4D5E004C0FE010E9470172196C234C6
:08371000D107C9F7F894FFCFBF
:1037180000006A028000000000003C0F0F0F2E110D
:103728008B05080FF50EE60E00000000FA0A8E055C
:103738002E11B40E05088B059F0D770D930D870D7F
:10374800070E8B05C008D8107507BE07C00CA30C60
:103758002B0CCC0B56464F3A25642E25303364008B
:0C3768004341543A4F4B202000525800BF
:107E0000112484B714BE81FFF0D085E080938100F7
:107E100082E08093C00088E18093C10086E0809377
:107E2000C20080E18093C4008EE0C9D0259A86E02C
:107E300020E33CEF91E0309385002093840096BBD3
:107E4000B09BFECF1D9AA8958150A9F7CC24DD24C4
:107E500088248394B5E0AB2EA1E19A2EF3E0BF2EE7
:107E6000A2D0813461F49FD0082FAFD0023811F036
:107E7000013811F484E001C083E08DD089C08234E0
:107E800011F484E103C0853419F485E0A6D080C0E4
:107E9000853579F488D0E82EFF2485D0082F10E0AE
:107EA000102F00270E291F29000F111F8ED06801E7
:107EB0006FC0863521F484E090D080E0DECF843638
:107EC00009F040C070D06FD0082F6DD080E0C81688
:107ED00080E7D80618F4F601B7BEE895C0E0D1E017
:107EE00062D089930C17E1F7F0E0CF16F0E7DF06D8
:107EF00018F0F601B7BEE89568D007B600FCFDCFD4
:107F0000A601A0E0B1E02C9130E011968C91119780
:107F100090E0982F8827822B932B1296FA010C0160
:107F200087BEE89511244E5F5F4FF1E0A038BF0790
:107F300051F7F601A7BEE89507B600FCFDCF97BE46
:107F4000E89526C08437B1F42ED02DD0F82E2BD052
:107F50003CD0F601EF2C8F010F5F1F4F84911BD097
:107F6000EA94F801C1F70894C11CD11CFA94CF0C13
:107F7000D11C0EC0853739F428D08EE10CD085E9AC
:107F80000AD08FE07ACF813511F488E018D01DD067
:107F900080E101D065CF982F8091C00085FFFCCF94
:107FA0009093C60008958091C00087FFFCCF809118
:107FB000C00084FD01C0A8958091C6000895E0E648
:107FC000F0E098E1908380830895EDDF803219F02E
:107FD00088E0F5DFFFCF84E1DECF1F93182FE3DFCA
:107FE0001150E9F7F2DF1F91089580E0E8DFEE27F6
:047FF000FF270994CA
:027FFE00040479
:0400000300007E007B
:00000001FF
