:100000000C9458000C9480000C9480000C94800098
:100010000C9480000C9480000C9480000C94800060
:100020000C9480000C9480000C9480000C94800050
:100030000C9480000C9480000C9480000C94800040
:100040000C946E030C9480000C943C030C941603E7
:100050000C9480000C9480000C9480000C94800020
:100060000C94B8030C9480000000000025002800C8
:100070002B00040404040404040402020202020229
:10008000030303030303010204081020408001025C
:1000900004081020010204081020000000080002DB
:1000A0000100000304070000000000000000D70466
:1000B00011241FBECFEFD8E0DEBFCDBF11E0A0E01E
:1000C000B1E0EAEBFDE002C005900D92AE3FB10752
:1000D000D9F723E0AEEFB1E001C01D92A436B2071C
:1000E000E1F710E0C8E5D0E004C02197FE010E94CE
:1000F000D506C735D107C9F70E9410050C94DB0659
:100100000C94000090E0FC01E656FF4F2491FC01A6
:10011000EA57FF4F3491FC01EE58FF4FE491EE2374
:10012000B1F0222339F02330E9F090F4213001F1CD
:10013000223011F1F0E0EE0FFF1FE859FF4FA591BB
:10014000B4918FB7F894EC913E2B3C938FBF0895F8
:100150002730A9F02830C9F0243061F78091800061
:100160008F7D03C0809180008F7780938000E2CFE5
:1001700084B58F7784BDDECF84B58F7DFBCF809132
:10018000B0008F778093B000D5CF8091B0008F7D85
:10019000F9CF08950895AF92BF92CF92DF92EF9278
:1001A000FF920F931F93CF93DF936C017B018B0121
:1001B000040F151FEB015E01AE18BF08C017D10771
:1001C00059F06991D601ED91FC910190F081E02DFB
:1001D000C6010995892B79F7C501DF91CF911F9150
:1001E0000F91FF90EF90DF90CF90BF90AF90089568
:1001F000FC01538D448D252F30E0842F90E0821B2D
:10020000930B541710F0CF96089501970895FC01B1
:10021000918D828D981761F0A28DAE0FBF2FB11D09
:100220005D968C91928D9F5F9F73928F90E0089561
:100230008FEF9FEF0895FC01918D828D981731F01B
:10024000828DE80FF11D858D90E008958FEF9FEF6F
:100250000895FC01918D228D892F90E0805C9F4F45
:10026000821B91098F73992708958BEB92E00E946E
:10027000290121E0892B09F420E0822F089580E0F4
:1002800090E0892B29F00E94350181110C94000027
:100290000895FC01A48DA80FB92FB11DA35ABF4F1B
:1002A0002C91848D90E001968F739927848FA68975
:1002B000B7892C93A089B1898C91837080648C93C9
:1002C000938D848D981306C00288F389E02D808178
:1002D0008F7D80830895EF92FF920F931F93CF93AA
:1002E000DF93EC0181E0888F9B8D8C8D98131AC071
:1002F000E889F989808185FF15C09FB7F894EE8958
:10030000FF896083E889F9898081837080648083B4
:100310009FBF81E090E0DF91CF911F910F91FF90FF
:10032000EF900895F62E0B8D10E00F5F1F4F0F73A7
:100330001127E02E8C8D8E110CC00FB607FCFACF62
:10034000E889F989808185FFF5CFCE010E944901B6
:10035000F1CFEB8DEC0FFD2FF11DE35AFF4FF08233
:100360009FB7F8940B8FEA89FB8980818062CFCF99
:10037000CF93DF93EC01888D8823B9F0AA89BB89DC
:10038000E889F9898C9185FD03C0808186FD0DC0C7
:100390000FB607FCF7CF8C9185FFF2CF808185FFE8
:1003A000EDCFCE010E944901E9CFDF91CF910895B1
:1003B0003FB7F8948091660290916702A09168021D
:1003C000B091690226B5A89B05C02F3F19F0019690
:1003D000A11DB11D3FBFBA2FA92F982F8827BC019F
:1003E000CD01620F711D811D911D42E0660F771FC7
:1003F000881F991F4A95D1F7089585ED8093BC0019
:100400008091BC0084FDFCCF10929602089520914B
:100410003E02260F3327331F21323105ECF42091A1
:100420009602FC0190E080E0243069F082E00895BB
:10043000A0913E022191AC01425E5D4FA40FB52F09
:10044000B11D2C930196861798F380913E02680F98
:1004500060933E0280E0089581E008950895E09160
:100460006F0280916E02E81730F4F0E0E250FE4F28
:10047000808190E008958FEF9FEF089590916F0233
:1004800080916E022FEF3FEF981748F4E92FF0E0CC
:10049000E250FE4F208130E09F5F90936F02C901D0
:1004A000089580916E0290916F02891B990B0895B7
:1004B000CF92DF92EF92FF920F931F93CF93DF9330
:1004C0007C01CB018A0120919702222389F0EB0164
:1004D0006B01C40ED51ECC15DD0569F06991D701FD
:1004E000ED91FC910190F081E02DC7010995F3CFCA
:1004F000642F0E940702C801DF91CF911F910F91D5
:10050000FF90EF90DF90CF900895CF93DF931F92ED
:10051000CDB7DEB76983209197022223F9F02091AD
:10052000BA02203258F021E030E0FC01338322830C
:1005300090E080E00F90DF91CF9108958091980234
:10054000E82FF0E0E756FD4F998190838F5F80930D
:1005500098028093BA0281E090E0ECCF61E0CE0196
:1005600001960E940702F7CF90E080E00895FC0119
:1005700001900020E9F73197AF01481B590BBC01EE
:100580008BEB92E00C94CB008F929F92AF92BF9234
:100590000F931F93CF93DF93CDB7DEB7A1970FB61D
:1005A000F894DEBF0FBECDBF19A2423008F44AE076
:1005B0008E010F5D1F4F842E912CB12CA12CA50113
:1005C00094010E94B306E62FB901CA01EA30F4F49F
:1005D000E05DD801EE938D01232B242B252B79F799
:1005E00090E080E0109719F0CD010E94B702A1962B
:1005F0000FB6F894DEBF0FBECDBFDF91CF911F9134
:100600000F91BF90AF909F908F900895E95CE1CFDC
:10061000CF93DF930E94B702EC0184E291E00E9445
:10062000B7028C0F9D1FDF91CF9108951F920F92FB
:100630000FB60F9211242F933F934F935F936F93B5
:100640007F938F939F93AF93BF93EF93FF938BEB26
:1006500092E00E944901FF91EF91BF91AF919F916C
:100660008F917F916F915F914F913F912F910F905B
:100670000FBE0F901F9018951F920F920FB60F92FA
:1006800011242F938F939F93EF93FF93E091CB02CD
:10069000F091CC028081E091D102F091D20282FDF2
:1006A0001BC090818091D4028F5F8F732091D502FF
:1006B000821741F0E091D402F0E0E554FD4F958FB0
:1006C0008093D402FF91EF919F918F912F910F9082
:1006D0000FBE0F901F9018958081F4CF1F920F923C
:1006E0000FB60F9211242F933F938F939F93AF9345
:1006F000BF938091620290916302A0916402B091D5
:1007000065023091610223E0230F2D3758F50196E1
:10071000A11DB11D20936102809362029093630238
:10072000A0936402B0936502809166029091670283
:10073000A0916802B09169020196A11DB11D80933C
:10074000660290936702A0936802B0936902BF911A
:10075000AF919F918F913F912F910F900FBE0F906E
:100760001F90189526E8230F0296A11DB11DD2CF28
:100770001F920F920FB60F9211242F933F934F9316
:100780005F936F937F938F939F93AF93BF93EF93F9
:10079000FF938091B900887F803609F44AC0F0F554
:1007A000883209F4A7C018F5803109F49BC0B8F469
:1007B000882309F4F9C0883009F494C0FF91EF91BF
:1007C000BF91AF919F918F917F916F915F914F9169
:1007D0003F912F910F900FBE0F901F901895883169
:1007E00009F488C0803251F78093940214C0803499
:1007F00009F49DC040F48033B9F38833F9F680934F
:10080000940285ECB0C0803509F485C0883509F4C0
:1008100096C0883499F60E94FD01D0CF883909F43A
:100820008CC038F5883729F050F4883611F08037BD
:1008300029F683E0809396021092600257C08838B0
:1008400009F47BC0803919F0803809F0B7CF809166
:100850006002803208F071C0E091600281E08E0F8A
:10086000809360028091BB00F0E0E05CFD4F8083EC
:100870003DC0803B39F0E0F4803A09F479C0883A11
:1008800009F09CCF84E08093960210923F02109270
:100890003E02E0916C02F0916D02099580913E025A
:1008A00081110FC081E080933E0210921E0209C0A8
:1008B000803C09F4A6CF883C09F4A3CF883B09F01B
:1008C0007DCFE0913F0281E08E0F80933F02F0E008
:1008D000E25EFD4F80818093BB0090913F0280914A
:1008E0003E0229C0809171028093BB0085EC809309
:1008F000BC0064CF9091930280919202981758F5B2
:10090000E091930281E08E0F80939302F0E0EE5825
:10091000FD4F8081E9CFE091930281E08E0F8093BB
:1009200093028091BB00F0E0EE58FD4F80839091E0
:100930009302809192029817C8F285E8D8CFE0918F
:10094000930281E08E0F809393028091BB00F0E0D0
:10095000EE58FD4F80838091950281115CCF81E03C
:100960008093700284EA8093BC001092960226CF96
:1009700085EC8093BC0010929602809160028032D8
:1009800030F4E0916002F0E0E05CFD4F1082609195
:10099000600270E0E0916A02F0916B0280E492E004
:1009A0000995109260020ACF1092940234CFEBEBBB
:1009B000F2E01382128288EE93E0A0E0B0E084833C
:1009C0009583A683B78324E031E03183208325EC2F
:1009D00030E03587248724EC30E03787268720EC09
:1009E00030E0318B208B21EC30E0338B228B22ECFA
:1009F00030E0358B248B26EC30E0378B268B118E44
:100A0000128E138E148EE8E5F3E013821282848333
:100A10009583A683B78386E191E0918380830895CF
:100A2000789484B5826084BD84B5816084BD85B5C9
:100A3000826085BD85B5816085BD80916E008160D5
:100A400080936E001092810080918100826080937B
:100A5000810080918100816080938100809180007D
:100A60008160809380008091B10084608093B100A8
:100A70008091B00081608093B00080917A008460A2
:100A800080937A0080917A00826080937A008091CE
:100A90007A00816080937A0080917A0080688093E8
:100AA0007A001092C10010926F0210926E021092A2
:100AB00098021092BA021092960281E080939502F9
:100AC0001092700282E10E94820083E10E94820003
:100AD0008091B9008E7F8093B9008091B9008D7F9D
:100AE0008093B90088E48093B80085E48093BC00CB
:100AF00089EC90E090936D0280936C028AEC90E018
:100B000090936B0280936A02E091CB02F091CC0249
:100B100082E08083E091C702F091C8021082E091E8
:100B2000C902F091CA028FEC80831092D302E09147
:100B3000CF02F091D00286E08083E091CD02F09167
:100B4000CE02808180618083E091CD02F091CE025F
:100B5000808188608083E091CD02F091CE02808117
:100B600080688083E091CD02F091CE0280818F7DFC
:100B7000808387E291E00E94080384E391E00E9471
:100B8000B7028FE391E00E94080384E791E00E949E
:100B9000B7028FE791E00E94080382E391E00E9490
:100BA00008038BE891E00E940803BB24B39422E081
:100BB000A22E99249A9435EE832E45EC342EC0E073
:100BC000D0E087E991E00E940803C12CD12C760186
:100BD000C39410E000E05C2CB0929702C092B9027E
:100BE000109298021092BA02809196028111FCCF65
:100BF000A0929602B0929502909294021092930263
:100C0000109292021092710290917102852D880FBC
:100C1000892B8093710280917002813009F082C02B
:100C200010927002809171028093BB008091BC0091
:100C300083FDF8CF3092BC00809196028230E1F3C0
:100C4000809194028F3F09F470C0809194028032A9
:100C500009F46DC080919402803309F46AC084E085
:100C6000109298021092BA0210929702811163C0FA
:100C700084EA91E00E94B7022FE0251520F089E870
:100C800091E00E94B70240E1C701B6010E94C40290
:100C900083EC91E00E9408030F5F1F4F2FEFC21AF1
:100CA000D20AE20AF20A8FE7C816D104E104F1047D
:100CB00009F091CF83EE91E0012B11F088EF91E0E4
:100CC0000E9408030E94D8016B017C0188EB482E2A
:100CD0008BE0582E612C712C0E94D8016C197D0973
:100CE0008E099F09683E734081059105A8F321E0B4
:100CF000421A51086108710888EEC80E83E0D81EB8
:100D0000E11CF11C411451046104710429F720977E
:100D100009F457CF0E943501882309F452CF0E946D
:100D200000004FCF8092BC0087CF80E099CF82E057
:100D300097CF83E095CF843009F0B0CF87EC91E076
:100D40000E94B7028FE0851520F089E891E00E94AB
:100D5000B70240E1C701B6010E94C40284E291E0FB
:100D60000E94B7029BCFA1E21A2EAA1BBB1BFD015A
:100D70000DC0AA1FBB1FEE1FFF1FA217B307E4077A
:100D8000F50720F0A21BB30BE40BF50B661F771FD2
:100D9000881F991F1A9469F76095709580959095B2
:100DA0009B01AC01BD01CF010895EE0FFF1F05901F
:0A0DB000F491E02D0994F894FFCFB0
:100DBA00000000006B01CB00F800B801290107010F
:100DCA001B010000000085025802B4022E025102E3
:100DDA003E022F020D0A0020202020202020202061
:100DEA0020202000536B657463683A202020004459
:100DFA003A5C45786572636973655F4F4C45445F39
:100E0A004932435C546573745F4932435F5363618B
:100E1A006E5C546573745F4932435F5363616E2E2F
:100E2A00696E6F0055706C6F616465643A20004D9D
:100E3A00617220203620323032300049324320534A
:100E4A0063616E6E6572005363616E6E696E672EC2
:100E5A002E2E200049324320646576696365206638
:100E6A006F756E64206174206164647265737320A7
:100E7A0030780020202100556E6B6E6F776E2065EA
:100E8A0072726F7220617420616464726573732078
:100E9A003078004E6F204932432064657669636575
:0E0EAA007320666F756E6400646F6E650000E5
:00000001FF
