:100000000C9458000C9480000C9480000C94800098
:100010000C9480000C9480000C9480000C94800060
:100020000C9480000C9480000C9480000C94800050
:100030000C9480000C9480000C9480000C94800040
:100040000C94AD020C9480000C941D030C94F702E8
:100050000C9480000C9480000C9480000C94800020
:100060000C944F030C948000000000002500280031
:100070002B00040404040404040402020202020229
:10008000030303030303010204081020408001025C
:1000900004081020010204081020000000080002DB
:1000A00001000003040700000000000000006E04CF
:1000B00011241FBECFEFD8E0DEBFCDBF11E0A0E01E
:1000C000B1E0E4E6FCE002C005900D92AC3CB10763
:1000D000D9F723E0ACECB1E001C01D92A233B20726
:1000E000E1F710E0C8E5D0E004C02197FE010E94CE
:1000F0002A06C735D107C9F70E94A7040C94300619
:100100000C94000090E0FC01E656FF4F2491FC01A6
:10011000EA57FF4F3491FC01EE58FF4FE491EE2374
:10012000B1F0222339F02330E9F090F4213001F1CD
:10013000223011F1F0E0EE0FFF1FE859FF4FA591BB
:10014000B4918FB7F894EC913E2B3C938FBF0895F8
:100150002730A9F02830C9F0243061F78091800061
:100160008F7D03C0809180008F7780938000E2CFE5
:1001700084B58F7784BDDECF84B58F7DFBCF809132
:10018000B0008F778093B000D5CF8091B0008F7D85
:10019000F9CF08950895AF92BF92CF92DF92EF9278
:1001A000FF920F931F93CF93DF936C017B018B0121
:1001B000040F151FEB015E01AE18BF08C017D10771
:1001C00059F06991D601ED91FC910190F081E02DFB
:1001D000C6010995892B79F7C501DF91CF911F9150
:1001E0000F91FF90EF90DF90CF90BF90AF90089568
:1001F000FC01538D448D252F30E0842F90E0821B2D
:10020000930B541710F0CF96089501970895FC01B1
:10021000918D828D981761F0A28DAE0FBF2FB11D09
:100220005D968C91928D9F5F9F73928F90E0089561
:100230008FEF9FEF0895FC01918D828D981731F01B
:10024000828DE80FF11D858D90E008958FEF9FEF6F
:100250000895FC01918D228D892F90E0805C9F4F45
:10026000821B91098F739927089589E892E00E9473
:10027000290121E0892B09F420E0822F089580E0F4
:1002800090E0892B29F00E94350181110C94000027
:100290000895FC01A48DA80FB92FB11DA35ABF4F1B
:1002A0002C91848D90E001968F739927848FA68975
:1002B000B7892C93A089B1898C91837080648C93C9
:1002C000938D848D981306C00288F389E02D808178
:1002D0008F7D80830895EF92FF920F931F93CF93AA
:1002E000DF93EC0181E0888F9B8D8C8D98131AC071
:1002F000E889F989808185FF15C09FB7F894EE8958
:10030000FF896083E889F9898081837080648083B4
:100310009FBF81E090E0DF91CF911F910F91FF90FF
:10032000EF900895F62E0B8D10E00F5F1F4F0F73A7
:100330001127E02E8C8D8E110CC00FB607FCFACF62
:10034000E889F989808185FFF5CFCE010E944901B6
:10035000F1CFEB8DEC0FFD2FF11DE35AFF4FF08233
:100360009FB7F8940B8FEA89FB8980818062CFCF99
:10037000CF93DF93EC01888D8823B9F0AA89BB89DC
:10038000E889F9898C9185FD03C0808186FD0DC0C7
:100390000FB607FCF7CF8C9185FFF2CF808185FFE8
:1003A000EDCFCE010E944901E9CFDF91CF910895B1
:1003B00085ED8093BC008091BC0084FDFCCF109241
:1003C0005B02089520910C02260F3327331F213240
:1003D0003105ECF420915B02FC0190E080E02430D8
:1003E00069F082E00895A0910C022191AC01445182
:1003F0005E4FA40FB52FB11D2C930196861798F36D
:1004000080910C02680F60930C0280E0089581E0F7
:1004100008950895E091340280913302E81730F492
:10042000F0E0E453FE4F808190E008958FEF9FEF5E
:10043000089590913402809133022FEF3FEF981787
:1004400048F4E92FF0E0E453FE4F208130E09F5F55
:1004500090933402C901089580913302909134023F
:10046000891B990B0895CF92DF92EF92FF920F9321
:100470001F93CF93DF937C01CB018A0120915C0213
:10048000222389F0EB016B01C40ED51ECC15DD05CE
:1004900069F06991D701ED91FC910190F081E02D17
:1004A000C7010995F3CF642F0E94E201C801DF91D3
:1004B000CF911F910F91FF90EF90DF90CF90089513
:1004C000CF93DF931F92CDB7DEB7698320915C0293
:1004D0002223F9F020917F02203258F021E030E011
:1004E000FC013383228390E080E00F90DF91CF9175
:1004F000089580915D02E82FF0E0E25AFD4F998166
:1005000090838F5F80935D0280937F0281E090E013
:10051000ECCF61E0CE0101960E94E201F7CF90E0BE
:1005200080E00895FC0101900020E9F73197AF01C8
:10053000481B590BBC0189E892E00C94CB00CF9387
:10054000DF930E949202EC0184E291E00E94920209
:100550008C0F9D1FDF91CF9108951F920F920FB6C0
:100560000F9211242F933F938F939F93AF93BF9339
:100570008091850290918602A0918702B0918802B5
:100580003091840223E0230F2D3758F50196A11DE9
:10059000B11D209384028093850290938602A093DC
:1005A0008702B09388028091800290918102A0918D
:1005B0008202B09183020196A11DB11D8093800239
:1005C00090938102A0938202B0938302BF91AF9176
:1005D0009F918F913F912F910F900FBE0F901F9081
:1005E000189526E8230F0296A11DB11DD2CF1F92A8
:1005F0000F920FB60F9211242F933F934F935F9357
:100600006F937F938F939F93AF93BF93EF93FF93DA
:1006100089E892E00E944901FF91EF91BF91AF916B
:100620009F918F917F916F915F914F913F912F910A
:100630000F900FBE0F901F9018951F920F920FB63C
:100640000F9211242F938F939F93EF93FF93E09139
:100650009902F0919A028081E0919F02F091A002AC
:1006600082FD1BC090818091A2028F5F8F732091C9
:10067000A302821741F0E091A202F0E0E757FD4F9C
:10068000958F8093A202FF91EF919F918F912F916F
:100690000F900FBE0F901F9018958081F4CF1F927E
:1006A0000F920FB60F9211242F933F934F935F93A6
:1006B0006F937F938F939F93AF93BF93EF93FF932A
:1006C0008091B900887F803609F44AC0F0F58832FD
:1006D00009F4A7C018F5803109F49BC0B8F4882349
:1006E00009F4F9C0883009F494C0FF91EF91BF91EB
:1006F000AF919F918F917F916F915F914F913F91BA
:100700002F910F900FBE0F901F901895883109F40C
:1007100088C0803251F78093590214C0803409F4A4
:100720009DC040F48033B9F38833F9F680935902C1
:1007300085ECB0C0803509F485C0883509F496C0D1
:10074000883499F60E94D801D0CF883909F48CC03A
:1007500038F5883729F050F4883611F0803729F6BB
:1007600083E080935B0210922E0257C0883809F410
:100770007BC0803919F0803809F0B7CF80912E0204
:10078000803208F071C0E0912E0281E08E0F8093DC
:100790002E028091BB00F0E0E25FFD4F80833DC000
:1007A000803B39F0E0F4803A09F479C0883A09F0E6
:1007B0009CCF84E080935B0210920D0210920C0299
:1007C000E0913102F0913202099580910C02811181
:1007D0000FC081E080930C021092EC0109C0803CB4
:1007E00009F4A6CF883C09F4A3CF883B09F07DCF5C
:1007F000E0910D0281E08E0F80930D02F0E0E45154
:10080000FE4F80818093BB0090910D0280910C027D
:1008100029C0809136028093BB0085EC8093BC0098
:1008200064CF9091580280915702981758F5E09143
:10083000580281E08E0F80935802F0E0E95CFD4F92
:100840008081E9CFE091580281E08E0F80935802B9
:100850008091BB00F0E0E95CFD4F808390915802ED
:10086000809157029817C8F285E8D8CFE0915802D6
:1008700081E08E0F809358028091BB00F0E0E95C2C
:10088000FD4F808380915A0281115CCF81E080937B
:10089000350284EA8093BC0010925B0226CF85EC7F
:1008A0008093BC0010925B0280912E02803230F463
:1008B000E0912E02F0E0E25FFD4F108260912E0287
:1008C00070E0E0912F02F09130028EE092E0099505
:1008D00010922E020ACF1092590234CFE9E8F2E0CA
:1008E0001382128288EE93E0A0E0B0E084839583C7
:1008F000A683B78324E031E03183208325EC30E008
:100900003587248724EC30E03787268720EC30E0D9
:10091000318B208B21EC30E0338B228B22EC30E0CA
:10092000358B248B26EC30E0378B268B118E128E84
:10093000138E148EE6E2F3E0138212828483958391
:10094000A683B78386E191E0918380830895CF9356
:10095000DF93CDB7DEB7A1970FB6F894DEBF0FBE19
:10096000CDBF789484B5826084BD84B5816084BD38
:1009700085B5826085BD85B5816085BD80916E003D
:10098000816080936E00109281008091810082606E
:1009900080938100809181008160809381008091AB
:1009A00080008160809380008091B100846080939A
:1009B000B1008091B00081608093B00080917A0096
:1009C000846080937A0080917A00826080937A00BC
:1009D00080917A00816080937A0080917A008068AB
:1009E00080937A001092C100109234021092330268
:1009F00010925D0210927F0210925B0281E0809360
:100A00005A021092350282E10E94820083E10E9424
:100A100082008091B9008E7F8093B9008091B900E7
:100A20008D7F8093B90088E48093B80085E480933B
:100A3000BC0089EC90E090933202809331028AEC02
:100A400090E09093300280932F02E0919902F09110
:100A50009A0282E08083E0919502F09196021082E2
:100A6000E0919702F09198028FEC80831092A1029E
:100A7000E0919D02F0919E0286E08083E0919B02CE
:100A8000F0919C02808180618083E0919B02F091D3
:100A90009C02808188608083E0919B02F0919C029F
:100AA000808180688083E0919B02F0919C0280812C
:100AB0008F7D808387E291E00E949F0284E391E032
:100AC0000E9492028FE391E00E949F0284E791E0EE
:100AD0000E9492028FE791E00E949F0287E291E0DC
:100AE0000E949F028BE891E00E949F0287E991E0BB
:100AF0000E949F02C12CD12C7601C39411E002E028
:100B0000BB24BA9445EEA42E55EC952E7C2C109364
:100B10005C02C0927E0210925D0210927F02809170
:100B20005B028111FCCF00935B0210935A02B092DA
:100B30005902109258021092570210923602909168
:100B40003602872D880F892B8093360280913502DB
:100B5000813009F074C01092350280913602809382
:100B6000BB008091BC0083FDF8CF9092BC008091C7
:100B70005B028230E1F3809159028F3F09F462C039
:100B800080915902803209F45FC08091590280330C
:100B900009F05CC083E010925D0210927F02109217
:100BA0005C02811130C084EA91E00E9492028FE0E1
:100BB000871520F089E891E00E94920219A226018F
:100BC0003701CE018196B301A2014F7055276627E8
:100BD000772724E076946794579447942A95D1F721
:100BE0004A30B4F5405DFC014293CF0141145104F9
:100BF0006104710441F7EF2B11F00E94920283EC23
:100C000091E00E949F02FFEFCF1ADF0AEF0AFF0A6E
:100C10008FE7C816D104E104F10409F077CF87EC1F
:100C200091E00E949F0200E010E001151105E9F338
:100C30000E9435018823C9F30E940000F6CFA092DC
:100C4000BC0095CF80E0A7CF82E0A5CF84E0A3CF02
:100C5000495CC9CFEE0FFF1F0590F491E02D099478
:040C6000F894FFCF36
:100C6400000000006B01CB00F800B8012901070166
:100C74001B0100000000600233028F0209022C02F3
:100C840019020A020D0A0020202020202020202002
:100C940020202000536B657463683A2020200044B0
:100CA4003A5C45786572636973655F4F4C45445F90
:100CB4004932435C546573745F4932435F536361E3
:100CC4006E5C546573745F4932435F5363616E2E87
:100CD400696E6F0055706C6F616465643A20004DF5
:100CE40061722020362032303230004932432053A2
:100CF40063616E6E6572005363616E6E696E672E1A
:100D04002E2E20004932432064657669636520668F
:100D14006F756E64206174206164647265737320FE
:0C0D240030780020202100646F6E650014
:00000001FF
